:1000000010720120F13D00009F410100DD3D000024
:10001000DD3D0000DD3D0000DD3D0000DD3D000078
:10002000000000000000000000000000B13E0000E1
:10003000DD3D000000000000553E0000DD3D0000F9
:10004000894000008940000089400000894000008C
:10005000894000008940000089400000894000007C
:10006000894000008940000089400000894000006C
:10007000894000008940000089400000894000005C
:10048000844641EA000313F0030349D1403A23D3E1
:100490000B6803604B6843608B688360CB68C36004
:1004A0000B6903614B6943618B698361CB69C361EC
:1004B0000B6A03624B6A43628B6A8362CB6AC362D4
:1004C0000B6B03634B6B43638B6B8363CB6BC363BC
:1004D00040304031403ADBD230320BD30B680360FE
:1004E0004B6843608B688360CB68C3601030103109
:1004F000103AF3D20C3205D351F8043B40F8043BD8
:10050000043AF9D2043208D0D2071CBF11F8013BDB
:1005100000F8013B01D30B8803806046704700BFA1
:10052000082A13D38B07B1D010F00303AED0C3F168
:100530000403D21ADB071CBF11F8013B00F8013B92
:10054000A4D331F8023B20F8023B9FE7043AD9D309
:10055000013A11F8013B00F8013BF9D20B78037026
:100560004B7843708B7883706046704780EA010C4B
:100570001CF0030F37D110F0030C20F0030021F022
:10058000030150F8042B08BF51F8043B0ED08CF047
:10059000030C6FF07F434FEACC0C23FA0CFC51F8AC
:1005A000043B42EA0C0243EA0C0300BFA2F1013C07
:1005B0009A4201BF2CEA020C1CF0803F50F8042B39
:1005C00051F8043BF2D04FEA02604FEA12220128B0
:1005D00028BFB0EB036F08BF1B0AF4D003F0FF0382
:1005E000000EC01A704710F0030F0AD010F8012B4C
:1005F00011F8013B012A28BF9A42F4D0A2EB030074
:1006000070474DF8045D50F8042B01F0030521F00C
:10061000030151F8043B022D26D04DD822F07F452E
:10062000B5EB132FA2F1013C2CEA020C0DD11CF00A
:10063000803C08BF51F8043B0AD185EA0205B5EBBE
:10064000036F0CD150F8042BE8E74FEA13235BE06B
:100650003CF07F4C54D10B784FEA126554E04FEADE
:10066000126503F0FF034FE04FEA0245A2F1013C9F
:100670004FEA15452CEA020CB5EB134F18D11CF0CC
:10068000803C08BF51F8043B07D185EA0205B5EB71
:10069000034F09D150F8042BE6E75FEA0C4C2FD149
:1006A0000B884FEA12452FE04FEA03434FEA124509
:1006B0004FEA134328E000BF02F0FF05B5EB136FCC
:1006C000A2F1013C2CEA020C0DD11CF0803C08BFC9
:1006D00051F8043B0AD185EA0205B5EB032F0AD194
:1006E00050F8042BE8E74FEA13630DE012F0FF0F18
:1006F00006D051F8043B4FEA122523F07F4303E074
:100700004FF0000020BC704705F0FF0203F0FF002F
:10071000012828BF904204BF2D0A1B0AF4D0A2EB87
:10072000000020BC704700BF81F0004102E000BF24
:1007300083F0004330B54FEA41044FEA430594EAA1
:10074000050F08BF90EA020F1FBF54EA000C55EADC
:10075000020C7FEA645C7FEA655C00F0E2804FEAAD
:100760005454D4EB5555B8BF6D420CDD2C4480EA8F
:10077000020281EA030382EA000083EA010180EABF
:10078000020281EA0303362D88BF30BD11F0004F0D
:100790004FEA01314FF4801C4CEA113102D0404243
:1007A00061EB410113F0004F4FEA03334CEA13337E
:1007B00002D0524263EB430394EA050F00F0A78096
:1007C000A4F10104D5F1200E0DDB02FA0EFC22FA91
:1007D00005F2801841F1000103FA0EF2801843FA85
:1007E00005F359410EE0A5F120050EF1200E012A76
:1007F00003FA0EFC28BF4CF0020C43FA05F3C018B4
:1008000051EBE37101F0004507D54FF0000EDCF12C
:10081000000C7EEB00006EEB0101B1F5801F1BD3D5
:10082000B1F5001F0CD349085FEA30004FEA3C0CD9
:1008300004F101044FEA445212F5800F80F09A80CF
:10084000BCF1004F08BF5FEA500C50F1000041EBD3
:10085000045141EA050130BD5FEA4C0C404141EBD7
:100860000101013C28BFB1F5801FE9D291F0000FD2
:1008700004BF01460020B1FA81F308BF2033A3F181
:100880000B03B3F120020CDA0C3208DD02F1140C78
:10089000C2F10C0201FA0CF021FA02F10CE002F1B3
:1008A0001402D8BFC2F1200C01FA02F120FA0CFCAC
:1008B000DCBF41EA0C019040E41AA2BF01EB0451F5
:1008C000294330BD6FEA04041F3C1CDA0C340EDCF3
:1008D00004F11404C4F1200220FA04F001FA02F336
:1008E00040EA030021FA04F345EA030130BDC4F1F4
:1008F0000C04C4F1200220FA02F001FA04F340EAE9
:100900000300294630BD21FA04F0294630BD94F099
:10091000000F83F4801306BF81F480110134013D80
:100920004EE77FEA645C18BF7FEA655C29D094EAF1
:10093000050F08BF90EA020F05D054EA000C04BF6F
:100940001946104630BD91EA030F1EBF002100205A
:1009500030BD5FEA545C05D14000494128BF41F0F9
:10096000004130BD14F580043CBF01F5801130BD5D
:1009700001F0004545F0FE4141F470014FF00000E8
:1009800030BD7FEA645C1ABF194610467FEA655C99
:100990001CBF0B46024650EA013406BF52EA03353B
:1009A00091EA030F41F4002130BD00BF90F0000F29
:1009B00004BF0021704730B54FF4806404F1320465
:1009C0004FF000054FF0000150E700BF90F0000F1E
:1009D00004BF0021704730B54FF4806404F1320445
:1009E00010F0004548BF40424FF000013EE700BF15
:1009F00042004FEAE2014FEA31014FEA02701FBFA5
:100A000012F07F4393F07F4F81F06051704732F0D6
:100A10007F4208BF704793F07F4F04BF41F400212D
:100A2000704730B54FF4607401F0004521F000418B
:100A30001CE700BF50EA010208BF704730B54FF015
:100A400000050AE050EA010208BF704730B511F016
:100A5000004502D5404261EB41014FF4806404F14E
:100A600032045FEA915C3FF4D8AE4FF003025FEAD4
:100A7000DC0C18BF03325FEADC0C18BF033202EB58
:100A8000DC02C2F1200300FA03FC20FA02F001FAB2
:100A900003FE40EA0E0021FA02F11444BDE600BF55
:100AA00070B54FF0FF0C4CF4E06C1CEA11541DBF04
:100AB0001CEA135594EA0C0F95EA0C0F00F0DEF8CF
:100AC0002C4481EA030621EA4C5123EA4C5350EAB4
:100AD000013518BF52EA033541F4801143F4801305
:100AE00038D0A0FB02CE4FF00005E1FB02E506F096
:100AF0000042E0FB03E54FF00006E1FB03569CF0EB
:100B0000000F18BF4EF0010EA4F1FF04B6F5007FF0
:100B100064F5407404D25FEA4E0E6D4146EB060662
:100B200042EAC62141EA55514FEAC52040EA5E50EB
:100B30004FEACE2EB4F1FD0C88BFBCF5E06F1ED895
:100B4000BEF1004F08BF5FEA500E50F1000041EBCC
:100B5000045170BD06F0004646EA010140EA020079
:100B600081EA0301B4EB5C04C2BFD4EB0C0541EA9B
:100B7000045170BD41F480114FF0000E013C00F3B0
:100B8000AB8014F1360FDEBF002001F0004170BDD4
:100B9000C4F10004203C35DA0C341BDC04F11404ED
:100BA000C4F1200500FA05F320FA04F001FA05F279
:100BB00040EA020001F0004221F0004110EBD37046
:100BC00021FA04F642EB06015EEA430E08BF20EA72
:100BD000D37070BDC4F10C04C4F1200500FA04F315
:100BE00020FA05F001FA04F240EA020001F00041A7
:100BF00010EBD37041F100015EEA430E08BF20EA1A
:100C0000D37070BDC4F1200500FA05F24EEA020E61
:100C100020FA04F301FA05F243EA020321FA04F090
:100C200001F0004121FA04F220EA020000EBD37047
:100C30005EEA430E08BF20EAD37070BD94F0000F47
:100C40000FD101F00046400041EB010111F4801F7B
:100C500008BF013CF7D041EA060195F0000F18BF2C
:100C6000704703F00046520043EB030313F4801F68
:100C700008BF013DF7D043EA0603704794EA0C0F22
:100C80000CEA135518BF95EA0C0F0CD050EA410638
:100C900018BF52EA4306D1D181EA030101F00041B5
:100CA0004FF0000070BD50EA410606BF10461946DD
:100CB00052EA430619D094EA0C0F02D150EA0136E9
:100CC00013D195EA0C0F05D152EA03361CBF10462A
:100CD00019460AD181EA030101F0004141F0FE41C9
:100CE00041F470014FF0000070BD41F0FE4141F44D
:100CF000780170BD70B54FF0FF0C4CF4E06C1CEA4D
:100D000011541DBF1CEA135594EA0C0F95EA0C0F01
:100D100000F0A7F8A4EB050481EA030E52EA0335BC
:100D20004FEA013100F088804FEA03334FF08055DD
:100D300045EA131343EA12634FEA022245EA11150A
:100D400045EA10654FEA00260EF000419D4208BFBB
:100D5000964244F1FD0404F5407402D25B084FEA68
:100D60003202B61A65EB03055B084FEA32024FF414
:100D700080104FF4002CB6EB020E75EB030E22BF71
:100D8000B61A754640EA0C005B084FEA3202B6EB31
:100D9000020E75EB030E22BFB61A754640EA5C00E0
:100DA0005B084FEA3202B6EB020E75EB030E22BF70
:100DB000B61A754640EA9C005B084FEA3202B6EB71
:100DC000020E75EB030E22BFB61A754640EADC0030
:100DD00055EA060E18D04FEA051545EA16754FEA92
:100DE00006164FEAC30343EA52734FEAC2025FEAB0
:100DF0001C1CC0D111F4801F0BD141EA00014FF03F
:100E000000004FF0004CB6E711F4801F04BF01430F
:100E10000020B4F1FD0C88BFBCF5E06F3FF6AFAE2B
:100E2000B5EB030C04BFB6EB020C5FEA500C50F1BB
:100E3000000041EB045170BD0EF0004E4EEA11313E
:100E400014EB5C04C2BFD4EB0C0541EA045170BD45
:100E500041F480114FF0000E013C90E645EA060E89
:100E60008DE60CEA135594EA0C0F08BF95EA0C0FB7
:100E70003FF43BAF94EA0C0F0AD150EA01347FF4FF
:100E800034AF95EA0C0F7FF425AF104619462CE7D6
:100E900095EA0C0F06D152EA03353FF4FDAE104639
:100EA000194622E750EA410618BF52EA43067FF48A
:100EB000C5AE50EA41047FF40DAF52EA43057FF41A
:100EC000EBAE12E74FF0FF3C06E000BF4FF0010C25
:100ED00002E000BF4FF0010C4DF804CD4FEA410C89
:100EE0007FEA6C5C4FEA430C18BF7FEA6C5C1BD056
:100EF00001B050EA410C0CBF52EA430C91EA030FD7
:100F000002BF90EA020F0020704710F1000F91EA33
:100F1000030F58BF994208BF90422CBFD8176FEA01
:100F2000E37040F0010070474FEA410C7FEA6C5CCF
:100F300002D150EA013C07D14FEA430C7FEA6C5CD6
:100F4000D6D152EA033CD3D05DF8040B704700BF02
:100F50008446104662468C461946634600E000BF50
:100F600001B5FFF7B7FF002848BF10F1000F01BD22
:100F70004DF808EDFFF7F4FF0CBF012000205DF8ED
:100F800008FB00BF4DF808EDFFF7EAFF34BF012072
:100F900000205DF808FB00BF4DF808EDFFF7E0FF0B
:100FA00094BF012000205DF808FB00BF4DF808ED5C
:100FB000FFF7CEFF94BF012000205DF808FB00BFC3
:100FC0004DF808EDFFF7C4FF34BF012000205DF8A5
:100FD00008FB00BF4FEA410C7FEA6C5C02D150EA8B
:100FE000013C0AD14FEA430C7FEA6C5C02D152EA21
:100FF000033C02D14FF0000070474FF001007047F2
:101000004FEA410212F5001215D211D56FF4787330
:10101000B3EB625212D94FEAC12343F0004343EAD3
:10102000505311F0004F23FA02F018BF40427047AE
:101030004FF00000704750EA013005D111F0004038
:1010400008BF6FF0004070474FF00000704700BFCE
:101050004A0011D212F5001211D20DD56FF4787337
:10106000B3EB62520ED44FEAC12343F0004343EA8C
:10107000505323FA02F070474FF00000704750EAD7
:10108000013002D14FF0FF3070474FF00000704741
:1010900053B94AB9002908BF00281CBF4FF0FF31DF
:1010A0004FF0FF3000F00CB8ADF1080C6DE904CE44
:1010B00000F008F8DDF804E0DDE9022304B0704731
:1010C000704700BF2DE9F04786468C460846089ECB
:1010D000154674461946002B40F0C1808542B2FA8D
:1010E00082F245D94AB1C2F1200300FA02FC9540D0
:1010F00094402EFA03F343EA0C0C4FEA154EA8B2C3
:10110000230CBCFBFEF80EFB18CC08FB00F943EAED
:101110000C43994528D9EB1808F1FF3704D29945BB
:1011200002D9A8F102072B44A3EB0903A4B2B3FB35
:10113000FEFC0EFB1C330CFB00F044EA0344A0420F
:1011400014D92C190CF1FF3304D2A04202D9ACF10E
:1011500002032C44241A43EA07401EB1D440002362
:1011600034607360BDE8F0874746DDE76346F1E72A
:1011700092BB431B01214FEA154EAFB2200CB3FBCB
:10118000FEFC0EFB1C330CFB07F840EA03439845BA
:1011900061D9EB180CF1FF3004D2984502D9ACF1BB
:1011A00002002B44A3EB0803A4B2B3FBFEFC0EFB2E
:1011B0001C330CFB07F744EA0344A7424DD92C1912
:1011C0000CF1FF3304D2A74202D9ACF102032C4444
:1011D000E41B43EA0040C0E7C2F12003954094407D
:1011E00020FA03F12EFA03F34FEA154E9040AFB206
:1011F0000343B1FBFEFC0EFB1C10190C0CFB07F8A3
:1012000041EA0041884522D969180CF1FF3004D227
:10121000884502D9ACF102002944A1EB08019BB238
:10122000B1FBFEFC0EFB1C110CFB07F743EA01436C
:101230009F420ED9EB180CF1FF3104D29F4202D924
:10124000ACF102012B44DB1B41EA004193E760460D
:10125000E3E76146F7E76046A4E76346B8E7834201
:1012600006D916B9002108467CE7C6E900E0F9E78F
:10127000B3FA83F78FB9834201D3724508D8BEEB26
:10128000020460EB030301209C461EB9002169E7BC
:101290003846FAE7C6E9004CF8E7C7F1200CBB4036
:1012A0000EFA07F522FA0CF42EFA0CF1BA401C43A0
:1012B00020FA0CF3B8404FEA144901431FFA84FEA8
:1012C000B3FBF9F809FB18300B0C08FB0EFA43EAE4
:1012D00000439A4540D9E31808F1FF3004D29A45FB
:1012E00002D9A8F102002344A3EB0A0389B2B3FB9D
:1012F000F9F809FB183308FB0EFE41EA03418E455D
:101300002CD9611808F1FF3304D28E4502D9A8F117
:101310000203214443EA0040A1EB0E01A0FB029826
:101320004145CE46434602D306D14D4504D201384D
:10133000B9EB020E68EB0403002EA7D0B5EB0E024A
:1013400061EB030101FA0CFC22FA07F3F9404CEAC5
:101350000303C6E9003199E74046C5E74346D9E7AC
:101360007FB500260446084615468DF80060FFF755
:101370002DFB0FA3D3E90023FFF792FBFFF768FED5
:10138000019028468DF80860FFF720FB08A3D3E9F9
:101390000023FFF785FBFFF75BFE022203906946FF
:1013A000204604F0B3FE04B070BD00BFAFF3008070
:1013B0000000000080842E412DE9F04F016C9BB0AD
:1013C00016461F46279D0490CDE9026749B1426C3D
:1013D0000123044693404A608B6010F007FB002312
:1013E0002364B7F10009C0F2B68000232B607E4B66
:1013F00033EA090300F0BA800022DDE9023418461E
:1014000021460023CDE90801FFF7B2FD804668B10F
:101410000123269A1360289B13B1744B289A1360FA
:10142000DFF8CC8140461BB0BDE8F08F18AB0498C4
:10143000019319AB0093DDE9082310F005FE834604
:101440005FEA195540F0A980DDE91885454405F2A9
:101450003243202B40F34D82C3F1400309FA03F9D4
:1014600005F2124326FA03F349EA0300FFF79EFA56
:10147000013D0123A1F1F871109300225D4BFFF7AC
:1014800057F953A3D3E90023FFF70AFB52A3D3E98B
:101490000023FFF74FF906460F462846FFF796FA56
:1014A0004FA3D3E90023FFF7FBFA02460B46304671
:1014B0003946FFF73FF906460F46FFF7A1FD002228
:1014C0008246002330463946FFF75CFD002840F095
:1014D0000382A8EB0508BAF1160F08F1FF33069353
:1014E00000F2A781444E06EBCA06DDE90801D6E901
:1014F0000023FFF747FD002800F0848000230AF155
:10150000FF3A0F9308F1FF33002BC0F299810023BB
:101510000A93BAF1000F7BDA0A9BCDF82CA0A3EB5B
:101520000A030A93CAF100034FF0000A0E93249BAA
:10153000092B77D8052B40F3E181043B0027249346
:10154000249B023B032B00F25986DFE813F054047E
:10155000510447042C04012329F000492B60224B3D
:10156000CDF80C9033EA09037FF446AFC9F31309B1
:1015700042F20F73269A59EA060913601DD0289B80
:10158000DFF87880002B3FF44DAF08F10303289A71
:10159000404613601BB0BDE8F08FDDE90812CDF8BE
:1015A0004080A5F2FF35C2F313030846DDF86080E2
:1015B00043F07F5141F440115FE7289BDFF8408002
:1015C000002B3FF42FAF08F10803E0E7AFF30080F2
:1015D00061436F63A787D23FB3C8608B288AC63F39
:1015E000FB799F501344D33F0000F07FF995010031
:1015F000F89501000000F83F4084010028960100A2
:101600001C960100B8F1000F40F3B1840F900A90CE
:10161000069BCDF82CA05344069300230E93249BE5
:10162000092B87D900230127CDE924334FF0FF335D
:101630000C970793049B00215964079B119304980E
:1016400010F0AEF90590002800F0E185079B0E2B05
:101650008CBF002707F00107DDE904321A64002F70
:1016600000F01B810B9A002A40F34A81BC4E02F025
:101670000F03D4054FEA221806EBC303D3E9006732
:1016800040F17083B74B08F00F080325D3E9082316
:10169000DDE90801FFF72EFBCDE91201B8F1000FDB
:1016A00012D0DFF8C09218F0010F08D0304639464A
:1016B0000135D9E90023FFF7F3F906460F465FEA43
:1016C000680809F10809EED132463B46DDE912010E
:1016D000FFF710FB804689460F9B43B10022A24BC7
:1016E00040464946FFF74EFC002840F04784284614
:1016F000FFF76CF942464B46FFF7D2F99B4B0022AD
:10170000FFF718F8079B0646A1F15077002B00F071
:10171000AB80079B0B9C1293059B404612995D1C66
:10172000CDE914678E4E06EBC10353E90212CDE9F1
:1017300016124946FFF764FC00F13007FFF746F93F
:1017400002460B4640464946FFB2FEF7F1FF894686
:101750000C998046DDE91623002900F00F81002056
:101760008349FFF7C7FADDE91423FEF7E1FF059E81
:1017700042464B46377006460F46FFF721FC0028CD
:1017800040F02F850023CDF858A0CDF850B09A46F0
:10179000DDF848B012942BE00AF1010ADA4580F234
:1017A000BD84304639460022724BFFF779F900229A
:1017B000704B06460F4640464946FFF771F9894689
:1017C0008046FFF71DFC0446FFF700F902460B4672
:1017D000303440464946FEF7ABFF32463B4605F8FB
:1017E000014B80468946FFF7CDFB002840F09C84E2
:1017F00042464B4600205C49FEF79AFF32463B4684
:10180000FFF7C0FB0028C7D0DDF850B02F46129C70
:10181000059902E08F4200F05F843A4617F8013DD7
:10182000392BF7D00133DBB23B70DDF81480059221
:101830006BE101230F9308F1FF33002BBFF667AE76
:10184000C8F101030A930023069362E62846FFF7D6
:10185000BDF842464B46FFF723F90022434BFEF703
:1018600069FF0646A1F15077404649460022424BA7
:10187000FEF75EFF32463B4680468946FFF7A0FBF7
:10188000002840F0AD8340464946324607F1004308
:10189000FFF778FB002840F0D5810B9A199B0E2AA0
:1018A00002DC002B80F2AD810C9A002A00F0B5809A
:1018B000249A012A40F38583079A0E9B551EAB425A
:1018C000C0F2C782002AA3EB050580F25B840A9B65
:1018D000079AA3EB0208C9E25046FFF777F83246B1
:1018E0003B46FFF745FB00287FF4F3AD0AF1FF3AD2
:1018F000EFE5C3F1200306FA03F0B7E501271FE681
:1019000000F0A3820B9B164E5D4205F00F0306EB21
:10191000C303DDE90801D3E90023FFF7C1F82E1165
:10192000CDE9120100F052840E4C002302258046BE
:101930008946F00709D5404649460135D4E90023D8
:10194000FFF7AEF83B4680468946761004F108045E
:10195000EFD1002B7FF4C0AEDDE91289BCE600BFF9
:1019600040840100188401000000F03F00001C408A
:101970000000E03F0000244000001440DDE91401B5
:10198000FFF78EF8059B1F70129B012BCDE90C0110
:1019900000F00984129F059BCDF840A01F4400224F
:1019A000AA4B40464946FFF77BF889468046FFF739
:1019B00027FB8246FFF70AF802460B460AF1300A77
:1019C00040464946FEF7B4FE05F801ABAF428046FB
:1019D0008946E4D1DDF840A000229D4BDDE90C01F1
:1019E000FEF7A8FE42464B46FFF7CCFA002840F02F
:1019F0007B8300209649DDE90C23FEF799FE4246E1
:101A00004B46FFF7DDFA002840F01982199B002BA6
:101A100003DB0B9B0E2B40F3F58000230E9DDDF8BE
:101A200028801E460C93B8F1000F0DDD06990029A1
:101A30000B4609DD41450A9AA8BF4346D21AA8EBD6
:101A40000308CB1A0A9206930E9B53B10C9B13B159
:101A5000002D40F01E8259460E9A049810F056F957
:101A600083460121049810F071F80746BAF1000F7F
:101A700040F06381249B012B40F37A810123069976
:101A80000B4413F01F0308D0C3F12002042A00F313
:101A9000B5810AD0C3F13C0300E01C230A9A9844A4
:101AA0001A440A92069A1A4406920A9B002B05DDF4
:101AB00059461A46049810F083F98346069B002B7A
:101AC00005DD39461A46049810F07AF90746249B3A
:101AD000022B0F9BD4BF00250125002B40F0BE80B8
:101AE000079B002B24DC1DB3079B002B00F08F818C
:101AF000259BDDF81480DC43394604980FF076FF0F
:101B00001EB1314604980FF071FF594604980FF04A
:101B10006DFF00220599631C0A70269A1360289BAA
:101B2000002B3FF47FAC404619601BB0BDE8F08F3E
:101B30000C9B002B00F0AF80B8F1000F00F3C081C8
:101B4000BAF1000F40F0D382B146059D079C6B1E91
:101B50001C44029B089403F00103049C0A93394639
:101B600058460FF0E5FC31468246584610F09CF985
:101B70004A4639468046204610F0B6F9C26801460A
:101B80000AF13003002A40F0A281CDE9060358464D
:101B900010F08AF90699069020460FF027FF249B43
:101BA000069A52EA0301079B40F0C2810A9A002A72
:101BB00000F0F282B8F1000FC0F2AD81089AA84699
:101BC000AA4208F8013B00F0D282594600230A22BB
:101BD00020460FF015FF4E45834631464FF0000377
:101BE0004FF00A02204600F09D810FF009FF4946A0
:101BF000064600230A2220460FF002FF4546814692
:101C0000ADE7144E0B9B06EBC306D6E90034CDE9D5
:101C10000234259B002B80F2E881079B002B00F308
:101C2000E481079B73B900220B4BDDE90201FEF74B
:101C300037FF02460B46DDE90801FFF7ADF9002842
:101C400000F0CE8100273E4652E700BF000024404E
:101C50000000E03F4084010000001440394658462F
:101C600010F022F90028BFF63BAF0B9B59460A2221
:101C70000498013B0B9300230FF0C2FE0C9B83469C
:101C8000002B40F09282119B002B119B079302DCEA
:101C9000002D7FF429AFDDF814800125079CDDF8C5
:101CA000109007E0594600230A2248460FF0A8FE8C
:101CB00001358346394658460FF03AFCA54200F1FB
:101CC000300308F8013BEDDB079A0025002ACCBF62
:101CD00090464FF00108059A904459460122049815
:101CE000029310F06DF83946834610F0DDF80028B5
:101CF00040F3E481059A02E0904500F0D48118F8A1
:101D0000013CC24608F1FF38392BF5D001330B9C5A
:101D100088F80030394604980FF068FE002E00F075
:101D2000C8812DB1B54203D0294604980FF05EFE5C
:101D3000DDF81480CDF814A0E3E60146524604987D
:101D40000FF0E4FF249B0746012B40F395804FF0F2
:101D5000000A3B6907EB830318690FF0A3FEC0F18B
:101D600020038CE6DDE908340225CDE9123495E440
:101D7000029B002B7FF482AEDDE90212C2F3130353
:101D8000002B7FF47BAEAD4B134033B10A9B013384
:101D90000A93069B013306930123BAF1000F40F02A
:101DA000F9819A466AE601230C93259B0B9A13440A
:101DB00011930133012B1D460793B8BF0125172D41
:101DC00040F31382012204235B001146013203F128
:101DD0001400A842F8D9049B596430E401230C9301
:101DE000259B002B40F3BE801D4611930793E6E729
:101DF00000230C93D9E700230C93F1E7C3F11C03F4
:101E00000A9A19441A4498440A9206914DE63946B2
:101E1000052204980FF0F4FD07465846394610F0A5
:101E200043F800287FF764AEDDF81480059B0B9C17
:101E3000013301340593312388F800305CE63A46DB
:101E400017F8013D302BFAD0EFE40225DDE90889CF
:101E500042E40E9B0E95EB1A00259A44DDE906320A
:101E6000134406930A9B984613440A93012104984D
:101E70000FF06CFE0646D6E5029B002B7FF467AFA1
:101E8000DDE90201C1F313030A46002B3FF47BAFE7
:101E90005DE7049C31462A4620460FF037FF064690
:101EA0005A46204631460FF07FFE5946834620466B
:101EB0000FF09CFD0E9B5B1B0E933FF4D2ADCAE569
:101EC0003146424604980FF07BFF064638E60498F8
:101ED00006930FF08BFDB8F1000F069B08DB029A0A
:101EE000249902F0010248EA010852EA08022ED1C0
:101EF00059460122049802930FF062FF3946834647
:101F00000FF0D2FF0028029B40F36581392B00F0CF
:101F100031810AF13103AA460B9C35464E460AF838
:101F2000013BF7E60FF06CFD45460646814616E696
:101F3000B8F1000FC0F25E81249948EA01080A99BD
:101F400051EA080800F05681002A7FF737AE392B96
:101F500000F01081AA46013335460B9C4E460AF824
:101F6000013BD7E6012325930793FFF763BBC8F135
:101F7000010306900F900A93FFF74ABB079B002BC3
:101F80003FF464AC119B002B7FF787AC0B9A404663
:101F900049461293541E2A4B0022FEF781FD8046CB
:101FA0008946681CFEF712FD42464B46FEF778FD57
:101FB0000022244BFEF7BEFB0646A1F15077FFF747
:101FC000ABBB109A002A00F08B8003F23343069AD1
:101FD0000E9D1A4406920A9A90461A440A9245E7C0
:101FE0000027DDF814803E4620E7DDE90889DDE9B9
:101FF000022340464946FEF77DFE059FFFF700F8A5
:102000000546FEF7E3FCDDE90223FEF749FD0B463A
:10201000024649464046FEF78BFB05F1300307F8C0
:10202000013B079B012B00F08980CDF818B00126F9
:10203000DDF81C90DDE902AB22E000BF0000F07F7C
:102040000000244000001C4052465B4620462946C2
:10205000FEF750FE0136FEF7D3FF8046FEF7B6FCD2
:1020600052465B46FEF71CFD0B46024629462046BB
:10207000FEF75EFB08F13003B14507F8013B5AD08B
:102080000022704BFEF70CFD0022002304460D4693
:10209000FEF76EFF0028D7D0DDF818B0DDF8148009
:1020A0000B9C059731E50B9C3123059A0134137085
:1020B00030E6DDF81480CDF814A026E503D1029BAC
:1020C000DB073FF517AE18F8013CC24608F1FF38B0
:1020D000302BF8D00B9C1DE601343123FFF7A4BB55
:1020E000189BC3F1360372E70599FFF796BB716839
:1020F00004980FF055FC0546002800F08F803369E6
:1021000006F10C010C3002339A00FEF7B9F92946AA
:10211000012204980FF054FE814616E5DDF858A020
:10212000DDF850B0FFF7B9BBDDF81480DDF850B032
:10213000129C0595E9E4DDF818B0454602460B46C9
:10214000FEF7F8FA80468946DDE90223FEF738FFFC
:1021500048B940464946DDE90223FEF709FF002859
:102160009CD0E9079AD50B9C0599FFF756BB3546DD
:102170004E46B2E5A84639233546059A4E4608F83C
:10218000013BBCE5069B134406930A9B9846134407
:102190000A936BE69A46DCE5392BEBD0B8F1000FD9
:1021A0003FF7B7AEB7E62F4616E4314600230A22C2
:1021B00004980FF025FC119B0646002B119B0793FA
:1021C0003FF7BAAC002D7FF48FACB5E4DDE912899E
:1021D0000225FFF781BA7FF49EAEDA077FF59BAE4A
:1021E00094E6DDF8148005958FE40021049B596482
:1021F000FFF725BA002A3FF77BAE8CE6049B00254B
:10220000184629465D640FF0CBFB059068B90E4B6C
:1022100000224FF4D5710D4810F034F802460A4BF5
:1022200040F2EA21094810F02DF8DDE90432259545
:102230001A644FF0FF33012211930C920793FFF7BA
:102240002CBB00BF000024402C96010040960100EA
:102250002DE9F74F544B1E682EB90122534B1A70CB
:1022600003B0BDE8F08F3146514800F04BFCEC2341
:1022700006F1EB05B5FBF3F51FFA85F8FC2345469F
:1022800007464FF0000A6FF0EB095D43494B4A4C9B
:10229000DFF81CB11D601FFA8AF080455AD804226D
:1022A000464B01261B68464C1A70464A4648116840
:1022B0005279996283F83020072283F831204FF455
:1022C00081725A8602F1013204325A634FF400726D
:1022D0001A873E4A4FF0FF31DA633D4A1E711A6495
:1022E0003C4A9D605A6447F25B52C3E912124FF4B4
:1022F00096725A654FF0FC12FC215A622E4A8D42AA
:102300005A61354A19821180DA612160068009DD3F
:1023100022F8021F1A624FF4FC72226002222F4D33
:1023200002809D61002201242D499A66C3E91D2186
:10233000022283F870402B4B1A702B4A13682344F7
:1023400013602A4B187804F097FB002888D0174BAD
:102350001C7085E709FB0AF17218EC2A44F2426E00
:1023600028BFEC22224BA080B3F800C0A4F800E004
:10237000A4F802C0A4F80680A660E760ABEB0101F8
:1023800004F110000192FEF77BF8019AEC2A02F1A9
:10239000100005D00021C2F1EC0220440DF034FA07
:1023A0000AF1010AFC3476E7481300207158012035
:1023B00071F8002044130020149100204C130020D9
:1023C0004013002030070020762F0020699901007B
:1023D0006599010061990100782F0020109200207A
:1023E000D1250000725801202413002074580120C8
:1023F0007C2F0020042210B5204B21491B6809685E
:102400001A700022C3E90A12072183F831104FF431
:102410008171598601F10131043159634FF4007122
:10242000198718494FF0FF30D96317494EF6602CD1
:10243000196416490124596447F25B51C3E912013A
:102440004FF4C040FC21D8604FF496701982C3E964
:1024500014C0A3F864100E480E491866C3E91D2184
:102460001A7183F870409A660B4B1A700B4B1878F0
:1024700004F002FB08B10A4B1C7010BD4C13002085
:1024800030070020699901006599010061990100F8
:10249000982F0020D1250000725801207458012087
:1024A0007158012003460A462DE9F0411979DB886D
:1024B0000068134303F03002302A0669D0E901476F
:1024C0000ED1294940F2E333284A294811F0B1FDE1
:1024D000284811F0AEFD40F2E331244811F0A0FD90
:1024E00003F00602042A09D1234940F2EA331F4AC5
:1024F0001F4811F09EFD40F2EA31EEE703F440225E
:10250000B2F5402F0CD11D4940F2F133174A18485B
:1025100011F08FFD1A4811F08CFD40F2F131DCE72B
:1025200001252468DA0705FA01F548BF83F4402342
:10253000254223F480120CD1124940F2FD330B4A9C
:102540000B4811F076FD104811F073FD40F2FD319B
:10255000C3E73468DB074CBF2C43AC4334603B68B3
:10256000BDE8F041184700BFAD9701007C9701001E
:10257000E69701000398010040980100739801005C
:10258000C0980100EC9801002A9901002DE9F04162
:1025900007460D460D4814F0DDFF28B10024DFF892
:1025A0002C80A542A6B201D1BDE8F081395DD8F8F2
:1025B000083006485B6806F07F0698477F2E02D1F8
:1025C000642014F0C3FF0134EBE700BF547901002D
:1025D0000A282DE9F34700F0F38007D8002800F01F
:1025E000CA80042826D002B0BDE8F087122800F087
:1025F000C7801328F7D1794A794D936801339360E6
:10260000784B2A681B689A42EDD2FC27764C7748B3
:102610002388774907FB0300096803F0010601EBF3
:102620008601486173493A44013321F816702A60E3
:102630002380D8E7DFF8A4A1DFF8BC91DAF80C30EA
:102640000133CAF80C306A4B1B68B3F87C20B3F82E
:102650007E100F2A1F6EA9F80010C4D944F24263FD
:1026600038887A889842BC88FE88BD68F968BAD1F3
:10267000731E7F2BB7D8B5F5C04FB4D85F4B188801
:10268000904216D04FF000081A805D4B80221E80C9
:102690005C4B5D481D605D4B19605D4B4146A3F886
:1026A00000800DF0B1F84FF4C042414659480DF09A
:1026B000ABF8B44297D2DFF8508118F80430002B01
:1026C00091D1012308F80430514B1E880136B6B26F
:1026D0001E80EC235C432A1B9A4228BF1A46A3188B
:1026E000B3F5C04F05D84B4807F110012044FDF762
:1026F000C7FE434B1B889E427FF475AF98F80030AD
:10270000002B3FF470AFB04418F8013C002B3FF4AD
:102710006AAF3C4C3F48216800F0F4F93B4B1B6822
:1027200083427FF460AF5222DAF804300321013390
:10273000CAF80430236801A89CB28DF80530C3F3B1
:102740000723B9F800508DF804208DF80630FFF704
:102750001DFF1CB121462F48FFF718FF68460221D4
:10276000ADF80050FFF712FF2B4B187802B0BDE810
:10277000F04714F03FB9194A13690133136132E786
:10278000264C2378012B07D1254B1B7823B102B0AF
:10279000BDE8F047FFF75CBD2378022B0BD111F0A9
:1027A000D4FB00231E4A237013701E4A13600122BB
:1027B0001D4B1A7017E72378002B7FF414AFF6E750
:1027C000164A17491378012B02D10B78002BDED162
:1027D00000230B70134913700B60E8E724130020EB
:1027E0004013002044130020762F00201491002075
:1027F0004C130020782F0020702F00209C0E00200A
:10280000722F00203C130020943000203813002049
:10281000742F0020143100207458012072580120B8
:1028200070F8002048130020715801202DE9FF4B5B
:102830009A4814F08FFE002800F02C81002147F602
:1028400012200BF01BFD964814F084FE20B14FF4CB
:10285000D0119448FFF726FE914814F07BFE20B17A
:102860004FF4B0119048FFF71DFE904BDFF8408207
:10287000186807F029F903F0F1FE032004F048F886
:10288000FF288C4F88F8000037D003F09BFF8A4B5D
:102890001860002831D0894B8367FFF7ABFD012317
:1028A0003B7011F052FBDFF81892864D864C14F005
:1028B00022FF237893B14FF47A7CA0FB0C0E002307
:1028C00047F612220CFB01E1FEF7E2FB0026D9F8E5
:1028D0000030C01A642884BF26702E806F4EB36803
:1028E0000193019B1B68002B40F08E803B78002BEE
:1028F00040F0B6800BF0A8FBD8E700230120734915
:102900003B7011F006FBCEE79DF80F30704A542B58
:10291000137004D10123237000232B80E1E7572B90
:1029200001D10623F7E7432BDBD10223F3E79DF820
:102930000F30582BF9D0002311E02A889DF80F00A2
:10294000531C9BB26349072B2B808854C9D911F0C3
:10295000FCFAF0E7604B9DF80F201A8003232370E8
:10296000BFE74FF0000B5C4A9DF80F101388A5F8E5
:1029700000B043EA01231380554A1278432A0AD152
:102980000E2B06D00320554911F0C3FA84F800B08D
:10299000A7E70523E3E7013BB3F5C04F02D30220CD
:1029A0004F49F1E70423DAE72A889DF80F004D49E3
:1029B000531C8854484A9BB212882B80934290D370
:1029C000494B1A60494A1388013313800122484B4E
:1029D0001A70B0E72988474B4A1C92B29DF80F0045
:1029E0000D2A2A8058547FF67CAF184611F08FFAD2
:1029F000414A197A10601171597A03F10A00517134
:102A000011F085FA9060A2E730460DF10F0198476A
:102A100000287FF46BAF14F06EFE4FF47A7CA0FBBD
:102A20000C0E002347F612220CFB01E1FEF730FBEF
:102A30002378C9F80000062B3FF67DAF01A252F8BB
:102A400023F000BF092900002F29000055290000AC
:102A500063290000A9290000D52900003B290000B6
:102A6000264B1A783AB1264A127802F0FF0112B9C1
:102A70001970FFF7BFFC1E4B1B7843B1204B1A782F
:102A80002AB9012298F800001A7003F06BFF03F0D6
:102A900083FE2FE704B0BDE8F08B00BF547901003E
:102AA000E87801001085010008850100380C00203D
:102AB00074580120735801204C130020D1250000C8
:102AC000201300206C2F0020972F00203C9901003C
:102AD000962F0020802F00206E2F00204E9901009D
:102AE0005699010071F80020481300207C2F002027
:102AF00070F80020882F0020300700207158012036
:102B00007258012030B5A0B189B142184FF0FF31A1
:102B1000094C10F8013B5940082301F00105490810
:102B200005B16140013BF8D19042F2D1C94308465A
:102B300030BD0146FBE700BF2083B8EDB2F5802F22
:102B40002DE9F0410ED33C4940F213233B4A3C4867
:102B500011F06FFA3B4811F06CFA40F2132137483C
:102B600011F05EFA042A0CD8374940F21A23334A8E
:102B7000334811F05EFA354811F05BFA40F21A2141
:102B8000EDE7043ACD1D8E1825F0070526F007065F
:102B9000761B172E4FEAD6070CD82D4940F2232377
:102BA000264A274811F045FA284811F042FA40F227
:102BB0002321D4E7B7FA87F44FF00008C4F12002CC
:102BC000C4F12404A4000734E408631CBB4205607C
:102BD000AF60C5F80C800CD91E494FF40E73174A2C
:102BE000174811F026FA194811F023FA4FF40E7124
:102BF000B5E74146920005F110000CF005FE6300B8
:102C000043F001036B803B1B05EBC4025900A5F8A0
:102C100000805180AA1925F83440A2F80280AB53F5
:102C200005EBC7035A88214642F001025A80284624
:102C3000BDE8F04111F09DB93B9A01006D9901008A
:102C4000E6970100519A0100689A0100899A0100F3
:102C5000A29A0100CB9A0100014B1B68184700BFE4
:102C60003C070020014B1860704700BF3C07002064
:102C700007B50B46002102460091034800F06AF8B0
:102C800003B05DF804FB00BF592C0000F0B502460C
:102C900001680A270020074E0B461C780131355D7C
:102CA0006D0701D41360F0BD07FB0043A3F13000B2
:102CB000F2E700BFB59401002DE9F84F15469A469A
:102CC000D378234A6F2B12F803B081460F460BF0DE
:102CD000030B2BD026D8582B0CBF10260A26DDF864
:102CE00028803246002348463946FEF7D1F9092AA2
:102CF00008F1FF38D4B21ED83034B145E4B277F1D0
:102D0000000788F8004001D3D04511D82B789B06E6
:102D100005D5082E15D1AB7843F00803AB704046BB
:102D2000BDE8F88F03F0F703702BD5E70826D6E748
:102D300081460F46D5E7BBF1010F0CBF373457343E
:102D4000DBE7102EEBD1AB7843F01003E6E700BFD2
:102D5000B59401002DE9F04F8A4616461C46002521
:102D600097B00390307808B9284655E325280AD053
:102D70005146039B98470028C0F24E83731C0135CF
:102D80000493049EEEE71822002110A80CF03CFDED
:102D90007378252B00F0A380002398469E469C461E
:102DA0001846711C0F4611F8012B2B2A00F0C68023
:102DB00000F2BD80202A00F0C480232A00F0C480E5
:102DC0002BB19DF8483043F040038DF84830B8F1FE
:102DD000000F05D09DF8483043F020038DF84830AF
:102DE000BEF1000F05D09DF8483043F010038DF878
:102DF0004830BCF1000F05D09DF8483043F008037F
:102E00008DF8483028B19DF8483043F004038DF820
:102E100048309DF8483003F04401442903D16FF352
:102E200086138DF848309DF848302A2A43F08003F5
:102E300009978DF8483040F08C809DF8493043F078
:102E400001038DF849307B1C1A782E2A0CBF012112
:102E500000219DF8492061F341028DF849200CD1F1
:102E60005A1C09925A782A2A40F083809DF84920FA
:102E7000023342F004028DF849201A786C2A00F0DF
:102E8000A48000F28680682A00F08C806A2A00F014
:102E9000A5804C2A00F0AA801A4612F8013B782B34
:102EA00004928DF84B309DF8492000F217816D2B6C
:102EB00000F2A980692B00F21181572B00F2BE802D
:102EC000412B03D0453B022B00F2088104229DF8E0
:102ED0004A3062F302038DF84A300123CAE08DF8CC
:102EE0004B30B31C04939DF84930D90740F1FD8065
:102EF00054F8048BB8F1000F07DA9DF84820C8F1A8
:102F0000000842F004028DF848205A0740F1F6808C
:102F100054F804BBBBF1000F80F2F5809DF84930F6
:102F20006FF341038DF849304FF0FF3BEBE02D2A62
:102F30000DD0302A7FF444AF012333E74FF0010C6A
:102F400030E74FF0010E2DE74FF001082AE701208E
:102F500028E709A8FFF79AFE099BBB423FF474AF2C
:102F60009DF848201390C00F60F341028DF848206F
:102F70006AE709A8FFF78AFE9DF848301490C3F36A
:102F8000400242EAD07262F341038DF84830099B57
:102F900073E7742A26D07A2A7FF47EAF06219DF843
:102FA00049200CE05A78682A9DF8492006D1012171
:102FB00061F3C6028DF8492002336DE7022161F307
:102FC000C6028DF84920013366E75A786C2A9DF8CD
:102FD000492001D10421EBE70321F0E705219DF809
:102FE0004920ECE707219DF84920E8E7BDF8482093
:102FF00022F4F04222F0020242F4804242F0020245
:10300000ADF84820DFE76E3BD9B201238B4040F298
:1030100082410B4238D113F0240F52D1DF075DD526
:1030200003219DF84A3061F302038DF84A3002F023
:103030007803A3F14000434243411BE00120A3F188
:103040005801C9B200FA01F111F4624F7FF43EAFAA
:1030500040F6010739421DD111F4043F3ED09DF8DE
:103060004A3060F3020302F07802402A8DF84A30B9
:1030700034D000239DF84820C2F340010B4363F392
:1030800041028DF848202EE702219DF84A3061F375
:103090000203E8E702209DF84A1002F0780260F38C
:1030A0000201402A8DF84A1002BF9DF8481041F0F5
:1030B00001018DF84810632BDBD1131E18BF0123CB
:1030C000D8E703219DF84A3012F0780F61F302032C
:1030D0008DF84A3014BF01230023CBE79DF8483018
:1030E00043F001038DF84830C3E79DF94820002ADA
:1030F000ACBF4FF0FF38DDF84C8006E79F077FF547
:1031000013AFDDF850B00023CDE913339DF84A30FA
:103110009DF8491003F00703012BC1F3C30132D11D
:10312000CB1E042B04D8DFE803F020454520200007
:10313000236801294FEAE372CDE910321BD19DF9D2
:103140004030DA17CDE9103204349DF8483013F0DE
:1031500003074FD032465146049B039810F049FFB5
:103160000028C0F2598105440BE654F8043BDA17F5
:10317000CDE91032E9E70229E6D11AB243F3C033B0
:10318000CDE91023E0E7022B24D1CB1E042B04D879
:10319000DFE803F018101018180001294FF00002A2
:1031A00054F8043B14D00229CDE91032CDD19BB2A2
:1031B0001093CAE7073424F00704F4E80223CDE9AA
:1031C0001023C2E754F8043B109300231193BCE78B
:1031D000DBB2CDE7042B08D1073424F00704D4E98F
:1031E00000230834CDE91023AFE7032BADD154F809
:1031F000043BDDE79DF84B0078283FF6C2AD62281E
:103200001ED8252850D058287FF4BBADDDE9100129
:103210000DF13E03009312AA0AABFFF74DFDBBF17F
:10322000000F814680F2C180B9F1000F3FF4A9ADD3
:103230000DF13E06A6EB0903002F7BD0013379E0A8
:10324000633815283FF69DAD01A252F820F000BF6B
:103250002333000081330000832D0000832D000004
:10326000832D0000832D000081330000832D00009A
:10327000832D0000832D0000832D0000CD3300003E
:10328000A5330000E1320000832D0000832D0000F3
:10329000B9320000832D0000A5330000832D00000B
:1032A000832D0000A53300005146039B984700285A
:1032B000C0F2B280013564E5BBF1000FDDF840904B
:1032C0000ADB594648460CF015FCB9F1000F3FF4F3
:1032D00058AD09EB000620E048460CF0A9FBF8E7E2
:1032E0001098002800F086800DF13E060AAB002100
:1032F000009612AAFFF7E0FCBDF84A30BBF1000FC0
:1033000003F0EF0343F4F04343F010038146ADF8BC
:103310004A3049DA00283FF434AD0027A6EB090310
:1033200008E0109B00278DF8283001230DF12906B5
:103330000DF128099DF84A1011F0100206925FD095
:103340000233139A134405924A0644BF14995B183A
:10335000B8F1000F6DDDA8EB03089DF84830580761
:10336000C3F3800B65D4590659D53FB15146384651
:10337000039B984700284FDB5F46013530234FE021
:103380001E075ABFC3F300135F012B27DDE910238B
:10339000002BBFF63BAF524263EB43032D27CDE931
:1033A000102333E7002731E700279DF848100DF17F
:1033B0003E03A3EB09036FF386119B458DF848107C
:1033C0007FF632AFABEB030313932DE7109B072976
:1033D0003FF6D7ACDFE801F00C04060C08080C0C33
:1033E0001D70CEE41D80CCE4EA17C3E90052C8E4A6
:1033F0001D60C6E4304E07460523A6F1050999E78E
:10340000080748BF01339CE7184607935146039BC2
:1034100098470028079B04DA17B0BDE8F08F2023F7
:10342000C346594600290BF1FF3BEDDC4544D84625
:103430006D1A37B151463846039B98470028EBDB9D
:1034400001359DF84A30DA0601D41B0706D55146EE
:103450003020039B98470028DEDB0135069B3BB1FB
:1034600051469DF84B00039B98470028D4DB01355B
:10347000059F2F4406E051463020039B98470028C3
:10348000CADB01357B1B002BF5DC33464A4651462F
:10349000039810F0AEFD0028BEDB0544A844A8EB5D
:1034A0000503002B7FF76DAC51462020039B984706
:1034B0000028B1DB0135F2E7FB9A010008B5EFF314
:1034C0001183202383F31288BFF36F8F01F08AF9F1
:1034D000024810F077FD10F079FEFCE7FC9A01003D
:1034E0002DE9F84F0446A38B08461907154612D458
:1034F000022803F0070165D1204610F0A7FD88B12E
:103500000138042800F23781DFE810F05C00350153
:103510008200D400040101280CBF43F0100143F0E5
:103520002001A183143420460BF0C8F9002840F094
:103530009D819A4940F23113994A9A4810F079FDD9
:103540002146B1E003F00702501F01281ED80020D9
:10355000062A2768C4E9000014D13A4603E0E08B4C
:103560000130E0831268002AF9D123F0070343F009
:1035700002022046A28310F069FD90B342F02002BF
:10358000A2832EE023F007039AB2F2E7042A33D194
:1035900023F007039AB22046A28310F057FD10B122
:1035A00042F02002A283A38B03F00709894540F073
:1035B000EC80A18BCA0640F1508121F01003A38357
:1035C00001F00701D4F81880A38BB8F1000FB9DA25
:1035D0000022276823F00703C4E9002243F0010317
:1035E000A383A38B03F00709894540F0CF80002F08
:1035F000DFD00026B24644E06B4940F21B136B4A11
:10360000684810F016FD40F21B11684810F008FDE4
:1036100049B167494FF4AB73644A624810F009FD41
:103620004FF4AB71F1E723684BB9624940F257138D
:103630005E4A5C4810F0FDFC40F25711E5E7236953
:103640001E684EB95C494FF4AD73584A554810F0A6
:10365000F0FC4FF4AD71D8E70F4688464FF00609ED
:10366000A38B23F0070343F006039BB2A383A26856
:10367000002A40F08D80002F40F08D80002E98D0E1
:10368000BA4643F0080304F1140B5846A3830BF029
:1036900015F9002840F09A80404940F23113404A21
:1036A000404810F0C6FC5946444810F0C2FC40F2B5
:1036B0003111ADE0022909D0414940F25D133B4A86
:1036C000384810F0B6FC40F25D119EE7E78B4FB131
:1036D0003C494FF4AF73354A324810F0AAFC4FF41E
:1036E000AF7192E723695E684EB9334940F26113C6
:1036F0002E4A2C4810F09DFC40F2611185E7A38B07
:10370000B84623F0070343F004039BB24FF00409CB
:10371000A383ACE7012909D02B494FF4B273234AA4
:10372000204810F086FC4FF4B2716EE723684BB965
:10373000204940F265131D4A1A4810F07AFC40F205
:10374000651162E723699E684EB91B494FF4B47353
:10375000164A144810F06DFC4FF4B47155E7002779
:10376000A38BB84623F0070343F005039BB24FF049
:103770000509A3837BE70C4940F26B130B4A094808
:1037800010F057FC40F26B113FE7002700266EE770
:103790004FF0010A75E7924673E700BFF89B0100FE
:1037A000CB9B0100E6970100B4CA0100259B0100F4
:1037B0004A9B0100569B0100799B01000F9C010070
:1037C000909B0100A69B0100B59B010085F3118829
:1037D000BFF36F8FBAF1000F1CD177BB16B1204633
:1037E0002549B047EFF31185202383F31288BFF3F7
:1037F0006F8F58460BF054F838BB88231F4A204976
:10380000204810F016FC59461F4810F012FC882181
:103810001A48FBE6A1680029DFD00D680029DCD03A
:1038200043464A462046D1F804A0D0471DB12B6834
:1038300029461D46F2E72B46FAE7394643464A46F3
:1038400020463F6810F02EFCC7E758460BF04CF8B6
:10385000A38B23F00803A383ABE68B067FF562AE50
:1038600021F02003A38301F0070145E685F31188C9
:10387000BFF36F8FBDE8F88F8D380000CB9B010040
:10388000249C0100E6970100399C0100F8B504462C
:103890000D4600F11406EFF31187202383F31288FD
:1038A000BFF36F8F30460AF0FBFF68B988230C4ADC
:1038B0000C490D4810F0BDFB31460C4810F0B9FB27
:1038C0008821074810F0ACFB30460BF00DF8A561DD
:1038D0003A462046BDE8F8400121FFF701BE00BF8F
:1038E000CB9B0100249C0100E6970100399C01005C
:1038F0002DE9F04704460F4610F0C4FB051E68DBB7
:1039000004F11409EFF3118A202383F31288BFF323
:103910006F8F48460AF0C4FF804660B98823384A52
:103920003849394810F085FB4946384810F081FB8A
:103930008821334842E048460AF0D6FF4FF6FF722E
:10394000E38BA68B934206F0070645D0022E15D1D5
:1039500035460133E38348460AF0B0FF002841D1E1
:1039600040F23113264A2A49274810F062FB4946A3
:10397000284810F05EFB40F23111DAE7062E13D82A
:10398000DFE806F0092D1212090409006FF0850521
:103990004FF00008DFE700233B60636883B9C4E9A8
:1039A000007786B13546F3E71B4917484FF4E473B7
:1039B0001A4A10F03EFB4FF4E471184810F030FB47
:1039C0001F606760EDE7524602212046FFF788FD41
:1039D00035462846BDE8F0876FF00A05D8E76FF056
:1039E0000405D5E78AF31188BFF36F8FB8F1000F94
:1039F000EFD0002332463946204610F053FBE8E76B
:103A0000CB9B0100249C0100E6970100399C01003A
:103A1000F89B01000F9C0100B59B0100259B010054
:103A200008B54268034602F00302022A81600AD008
:103A3000032A4FF0000103D0012A0AD1596006E0A1
:103A40001868596008BD186800225A6058B90020EB
:103A5000F8E7064906484523064A10F0EAFA4521E8
:103A6000044810F0DDFA0BF059FBF0E7B4CA01008E
:103A7000E69701004F9C0100014B03600020704756
:103A80001885010030BFFFF7FDBF00BF054B5A6925
:103A90009B689A421FBF044A536843F080535360A7
:103AA00009F09ABCE42E002000ED00E0154B9A6A64
:103AB00012F0007F9A6A14BF1E201D2012F0807F32
:103AC0009A6A18BF1F2012F4801F9A6A18BF02203A
:103AD00012F4002F9A6A18BF212012F4802F9A6ADC
:103AE00018BF222012F4003F9A6A18BF232012F454
:103AF000803F9A6A18BF24206FEA02426FEA12429E
:103B00009A62704700ED00E010B5194B0246986AC2
:103B10009C6A10F4805F14BF1720162014F4006F05
:103B20009C6A18BF1820A40509D5986B986A0004F0
:103B300004D51AB19A6A22F400429A6219200C4BF9
:103B40009A6A12F4806F9A6A18BF1A20D2050CD4B0
:103B50009B6A13F4005F18BF1C20054A936A43F464
:103B60007F43936200230B7010BD1B20F5E700BF5D
:103B700000ED00E010B5264B0246986A9C6A10F0F2
:103B8000100F14BF1120102014F0080F9C6A18BFEA
:103B90001220A40709D5586B986A000604D51AB1FB
:103BA0009A6A22F080029A621320194B9A6A12F0E4
:103BB000010F9A6A18BF142012F0200F9A6A18BFDA
:103BC0001520D20602D49B6A9B0712D5104B9B6A24
:103BD000DC060ED50F494FF495730F4A0F4810F0CD
:103BE00028FA0F4810F025FA4FF495710A4810F0A2
:103BF00017FA074B9A6A920642BF5A6A22F4005299
:103C00005A629A6A42F0FF029A6200230B7010BD5A
:103C100000ED00E0A79C0100759C0100E697010003
:103C2000F19C0100F0B55D4B04465B6800258BB04C
:103C3000C3F3080385F31188BFF36F8F02F07F4051
:103C4000B0F17F4F08D102F00C00082804D0120711
:103C50004CBF0C46012574B9514940F21143514AF9
:103C6000514810F0E6F9514810F0E3F940F21141E3
:103C70004C4810F0D5F90022033B8DF80720032BA8
:103C800000F28480DFE803F0027A7E5D434AD36A63
:103C900013F002037AD1D16A00291ADBD36A5B00E0
:103CA0005FD55369A16943F480735361BFF34F8FAC
:103CB000BFF36F8F536931F8021C23F48073536193
:103CC000BFF34F8FBFF36F8F4DF60273994220D130
:103CD00023689DF80720D2B9224602AE04F12007DE
:103CE000344610685168083203C4BA422646F7D1F8
:103CF000099A002D4CD0C2F3080121B96FEA522273
:103D00006FEA42220992184602A910F03EFA0BB05F
:103D1000F0BD936ADBB233B101200DF10701FFF76B
:103D200029FF0346D5E7936A13F47F4F05D001209E
:103D30000DF10701FFF7E8FEF3E7936AB3F5803F63
:103D400002D3FFF7B3FEECE7194940F2EA23154A24
:103D5000154810F06EF9174810F06BF940F2EA219F
:103D600086E7134940F2ED230E4A0F4810F061F93F
:103D7000114810F05EF940F2ED2179E700200DF1D5
:103D80000701CCE700200DF10701D3E70023A0E7EE
:103D900022F4FF7222F00102B4E700BF00ED00E060
:103DA000559D0100759C0100E6970100689D01008A
:103DB000B4CA0100A69D0100CA9D0100064B5A69C4
:103DC00042F010025A615A6942F480625A615A699B
:103DD00022F008025A61704700ED00E0EFF308801E
:103DE000EFF3098101B57246FFF71CFF01BD00BF6B
:103DF0000B4880F3088806F03DFA202080F31188F4
:103E000008484FF40061401880F30988EFF31480EC
:103E10000221084380F31488BFF36F8F00F0CAF8C3
:103E200010720120D0580120084B9B6883420BD1AF
:103E3000EFF3058343B1064B5A6842F080525A6053
:103E40005A6A22F400425A620AF0BEBAE42E0020F6
:103E500000ED00E014498A684FF030001044EFF3A1
:103E6000098C80E8F01F202080F31288BFF36F8F49
:103E70000E4F4FF000664A698A603E60D2F89800A3
:103E80000023C2F8983080F3118802F1300090E8E6
:103E9000F01F8CF3098802F1000004B510F08AF9D4
:103EA000BDE8044070470000E42E002004ED00E06F
:103EB0001EF0040F0CBFEFF30880EFF30980816957
:103EC00011F8021C0229FFD001B5724610F063F907
:103ED00001BD00BF00B2002807DB01234109034AEE
:103EE00000F01F00834042F82130704700E100E0FD
:103EF00000B200280CDB01220649430900F01F0034
:103F00008240203341F82320BFF34F8FBFF36F8FE0
:103F1000704700BF00E100E0054B420953F8222042
:103F2000012300F01F0003FA00F01040704700BFAB
:103F300000E100E038B54B1C072B04460D460FD9B5
:103F40006B23104A1049114810F073F829461048A5
:103F50000723224610F06DF86B210A4810F060F834
:103F600000B20028ACBF00F160400A4A4FEA431398
:103F7000DBB2ABBF00F5614000F00F0080F800330A
:103F8000135438BDFA9D0100319E0100E6970100EF
:103F90004C9E010014ED00E0044B054A23F07F0322
:103FA0009360BFF34F8FBFF36F8F70470000000027
:103FB00000ED00E008B5FFF7EFFF0B4AD2F88830BC
:103FC00023F47003C2F88830EFF3148323F0040362
:103FD00083F31488BFF36F8F08F05EFB0AF08CFC4C
:103FE00000F042F808F09CFB00ED00E042F8203CB5
:103FF000009B0B4942F81C3C019B21F0010142F857
:10400000183C029B42F8081C42F8143C4FF08073A5
:1040100042F8043C0023203A0265C0F8983070470B
:10402000DF3F010000B50C4B0E4698601546D0F8F6
:10403000883083F30B882C4686F309880020044BD4
:1040400098472046002100220023024C2047000010
:10405000BF410100DF3F0100E42E00201022014B90
:104060001A61704700ED00E00023202040F20F129B
:1040700010B5044CE1180133934281F80003F9D1E3
:1040800010BD00BF00E100E008B5EFF30583064A6C
:10409000103B02EBC30152F8330049688847BDE882
:1040A0000840FFF7F3BC00BF747A01001FB5094C4C
:1040B000094A23460121094800F0FAF80023039336
:1040C000074B0121E41A01A80193029400F014F9AE
:1040D00004B010BD00F0022000000020188501008F
:1040E0001010002010B50C7A0B6804F01F0223F0AA
:1040F0001F031A43CB68640923F01F03054943EAF1
:10410000440343F00103C1F89800C1F89C20C1F8B2
:10411000A03010BD00ED00E010B5074BD3F8903093
:10412000C3F30723013B984202D8FFF7DBFF10BD22
:104130006FF01500FBE700BF00ED00E02DE9F04F48
:104140000F46144606464FF000084D4D85B0B84561
:1041500080F29280D6F80490B9F1000F36D0B9F110
:104160001F0F40F2878019F01F0F40F08380D6F8B0
:1041700000A01AF01F0F7DD1504610F043F883467F
:1041800009EB0A00013810F03DF8834572D11BF1AC
:10419000160F6FD05C456DDDC5F898B0D5F89C1052
:1041A000C5F898B0D5F8A03021F01F0143F01F0AE0
:1041B000D6E900321A44994202F1FF391ED1CA45AC
:1041C00008D131465FFA8BF010F025F808F10108AC
:1041D0000C36BCE73146C5F898B0D5F89C3022F0D3
:1041E0001F0203F01F031343C5F89C30E0B210F028
:1041F00012F810F1160F3DD0441CE7E7C5F898B04F
:10420000D5F8A020013B23F01F0302F01F02134347
:10421000CA453146E0B2C5F8A030E8D00FF0FBFF48
:1042200010F1160F26D0C5F898B0D5F89C209DF84F
:1042300008300AF1FF3A62F304038DF80830D5F82C
:10424000A0309DF808205B0863F347128DF8082022
:10425000D6E900321344009323F01F035344A3EB29
:104260000903013023F01F036946C0B20393FFF72F
:1042700053FFBEE76FF01504204605B0BDE8F08F90
:1042800000ED00E00522044BC3F89420BFF34F8FEC
:10429000BFF36F8F704700BF00ED00E0BFF35F8F8B
:1042A0000022024BC3F89420704700BF00ED00E0ED
:1042B00038B50C4D0C462A78FFF740FF28701630B1
:1042C0000FD14FF4BB73084A084909480FF0B1FEFB
:1042D000214608480FF0ADFE4FF4BB7102480FF0C5
:1042E0009FFE38BD755801208C9E0100B4CA0100A4
:1042F000E6970100BB9E01002DE9F74F314E89463C
:1043000005464FF00008B3462F4FC84502DB03B007
:10431000BDE8F08FD5F804A0BAF1000F4CD02968A1
:10432000084601910FF06EFF019904460AEB010067
:1043300001380FF067FF84424FF01402234B15D071
:1043400002FB08F36FF015024BF803204FF4C37320
:104350001F4A204920480FF06CFE49461F480FF0C5
:1043600068FE4FF4C3711A480FF05AFE14F1160F8D
:104370003460EBD01978A142E8DD02FB08B0C7F841
:104380009840C7F89840D7F89C4000F10801007B9E
:1043900064F304000871D7F8A0000C79400860F3BA
:1043A00047140C71D7F89C1021F01F017160D7F8E9
:1043B000A01021F01F01316108F1010814360C35FD
:1043C000A3E700BF5013002000ED00E07558012066
:1043D0008C9E0100B4CA0100E6970100E79E01002F
:1043E0002DE9F041574C584ED4F890303568C3F35E
:1043F00007239D4286B013D940F2AD13534A544966
:1044000054480FF016FED4F8902029465248C2F3C3
:1044100007220FF00EFE40F2AD114C480FF000FEE7
:104420000020FFF73BFF4D4BC4F8C03085421AD146
:104430004B4C01A82570FFF71FFB002506464FF0E7
:104440004108484FAE4215D1002023783D49D1F8AC
:104450009020C2F3072293426DDB0020FFF712FF8A
:1044600006B0BDE8F081716801EB0011FFF73AFE7C
:104470000130DBE7019A290102EB0513D3F80CC0E8
:104480000CEA0700B0F5001F27D0B0F5800F40D030
:10449000B0F5801F4DD1586852589B68CDE9020293
:1044A0002122013B20F01F010B4423F01F038DF854
:1044B00010200593207802A9FFF72EFE002835DA98
:1044C000234940F2D713214A22480FF0B2FD264873
:1044D0000FF0AFFD40F2D7119FE758689B68525824
:1044E000013B20F01F010B4423F01F031CF0010FC0
:1044F000CDE902028DF810800593DBD01B497B23A8
:10450000124A14480FF095FD19480FF092FD7B21D7
:1045100083E758689B685258013B20F01F010B4409
:10452000CDE9020223F01F030222C0E72378013302
:104530002370013586E7C1F89830C1F8A000013337
:1045400085E700BF00ED00E0248501008C9E01009E
:10455000B4CA0100E6970100169F0100AAFF4400BB
:10456000755801200000F0FF9F9F01004A9F010045
:10457000709F010008B50B4BC3F1005303F53C33AA
:10458000B3F5005F0CD208499223084A08480FF09F
:1045900050FD08480FF04DFD922104480FF040FDFA
:1045A000002008BD04C3012008A00100D89F01001D
:1045B000E697010051A00100014B1860704700BF51
:1045C00044070020F8B506460D460024064FAC42CD
:1045D00008DA3B6898470A28305504F1010401D0F5
:1045E0000D28F4D12046F8BD40070020F8B50D464F
:1045F000094F461EC0F10104A3199D4201DC284663
:10460000F8BD73780A2B02D10D203B6898473B68B0
:1046100016F8010F9847EFE74407002010B5074C44
:104620002368C2180648C0F1005101F53C318A42A6
:1046300036BF22604FF0FF30C01810BD6413002059
:1046400004C3012010B5044658B9114940F297132C
:10465000104A11480FF0EDFC40F297110D480FF091
:10466000DFFC14200AF000FE206060B90B4940F224
:104670009F13084A08480FF0DCFC09480FF0D9FCEA
:1046800040F29F11EAE7BDE8104012F09CBF00BF66
:10469000D9A00100D89F0100E6970100D8A0010031
:1046A00014A1010008B558B90749084840F2B513EC
:1046B000074A0FF0BEFC40F2B51105480FF0B0FC00
:1046C000BDE808400AF0D8BDD9A00100E697010076
:1046D000D89F010010B558B909490A4840F2C713DC
:1046E000094A0FF0A6FC40F2C71107480FF098FCEA
:1046F0004FF0FF32BDE810404FF0FF3308F09CB898
:10470000D9A00100E6970100D89F010008B558B96B
:104710000749084840F2E313074A0FF08AFC40F2C9
:10472000E31105480FF07CFCBDE8084008F054B9DF
:10473000D9A00100E6970100D89F010008B50548FF
:104740000FF040FC002383F31188BFF36F8F042325
:10475000184602DF37A1010008B5144A144B1A604D
:1047600000F0CAF84FF47A61124B0020D3F82436D7
:10477000C3F30802C3F309434B4382F480720E492A
:10478000883201FB02334FF4FA215B00B3FBF1F2F4
:1047900001FB1233B3F57A3F084B28BF0132C3F84F
:1047A00004290122C3F8002608BD00BF0020A1078C
:1047B0003C0C002000C0FF001027008000001250B9
:1047C00048B1054B054A1B68B3FBF2F35843044B51
:1047D00043F00103184770473C0C002040420F0093
:1047E00000840100BFF34F8F0549064BCA6802F4ED
:1047F000E0621343CB60BFF34F8F00BFFDE700BF04
:1048000000ED00E00400FA052DE9F34705460C46EB
:104810002E4EDFF8BC802F4F14B902B0BDE8F087F0
:10482000EFF31189202383F31288BFF36F8F2A4897
:104830000AF036F868B98823284A294929480FF030
:10484000F8FB254928480FF0F4FB882123480FF096
:10485000E7FB21480AF048F801F0DAFB234AD2E9E5
:104860000031C31808FB03FA41F1000106FB01AA5D
:10487000A3FB0631DB194AEB010A1748C2E9003AEB
:104880000AF01CF868B940F23113144A1849154867
:104890000FF0CFFB104917480FF0CBFB40F231115E
:1048A000D4E789F31188BFF36F8F042CA14628BF8A
:1048B0004FF0040928464A4601A9CDF804A04D440A
:1048C000FBF7DEFDA4EB0904A6E700BFFDB0B0874F
:1048D000E62EBB272DF304B568130020CB9B010007
:1048E000249C0100E6970100399C01000000002093
:1048F000F89B01000F9C01000122024BC3F8042425
:10490000704700BF002008E037B540230C460A4935
:104910000093411A491105462346084A08480FF0FA
:10492000AFFC011E05DA2846234603B0BDE830403F
:10493000184703B030BD00BF80130020EB420100D8
:104940007C780100C9B2012908B509D9084909488C
:104950007F23094A0FF06DFB7F2107480FF060FBB2
:104960000C22036901FB0233986C00F0070008BDBC
:104970007DA10100E697010040A1010070B5C9B218
:10498000012903690BD91949194840F2D113194A71
:104990000FF04FFB40F2D11116480FF041FBEFF33F
:1049A0001185202484F31288BFF36F8F0C2606FB39
:1049B0000134A46C14F0C00408D0A24206D085F3E0
:1049C0001188BFF36F8F4FF0FF3070BD012206FBDF
:1049D00001339A6485F31188BFF36F8F436803EB4B
:1049E000C1035B6898470020EFE700BF7DA101008D
:1049F000E697010040A1010070B50D460649044646
:104A0000411A491140220548FFF7B8FF2B460146DD
:104A10002046BDE870401847801300207C780100D4
:104A200070B500220121044640F20510FFF782FA1A
:104A30000F4805F05FFD0F4B984215D105F06AFD58
:104A400026690D4930460FF043FB00280BDB01259A
:104A5000B5642469084904F120000FF039FB0028EF
:104A600001DB0020656570BD6FF00400FBE700BF4F
:104A7000394B00000000AD0B4C8501007FB50022D2
:104A80000123CDE9022304ABCDE90433094A6B4687
:104A9000CDF800D0CDF804D00FF020FC002805DBC5
:104AA00043F609520023684608F00AF907B05DF89A
:104AB00004FB00BF0343010010B5EFF31184202372
:104AC00083F31288BFF36F8F074A136823F0020144
:104AD000DB07116002D4012005F0D8FD84F31188B2
:104AE000BFF36F8F10BD00BFD81300200C22104BF6
:104AF000014602FB0033002030B4D3E910521864A1
:104B0000EFF31180202484F31288BFF36F8F9C6C25
:104B100004F0C00444F002049C6480F31188BFF3E5
:104B20006F8F1DB12B4630BC0248184730BC704710
:104B3000801300207C78010008B5062818D8DFE82B
:104B400000F02121090B042121000020BDE80840CC
:104B5000FFF7CCBF0120F9E70B494FF43E730B4A36
:104B60000B480FF066FA4FF43E7108480FF058FA00
:104B7000054940F20233054A05480FF05AFA40F25F
:104B80000231F2E708BD00BFB4CA010040A1010034
:104B9000E697010010B4EFF31182202383F312880B
:104BA000BFF36F8F1648016841F002040460C80724
:104BB00007D482F31188BFF36F8F012010BC05F07A
:104BC000D9BC1049D1F80C14C903F2D5EFF3118008
:104BD00083F31288BFF36F8F0B498B6C03F0C00314
:104BE00043F002038B6480F31188BFF36F8F82F36D
:104BF0001188BFF36F8F002010BCFFF777BF00BF95
:104C0000D813002000E01050801300202DE9F0415F
:104C1000012206464049D1E8EF3FC1E8E02F0028D5
:104C2000F9D1A3B93D493E484B60CB608A60FEF79D
:104C30005FFE00280BDA3B494FF429733A4A3B48A0
:104C40000FF0F7F94FF4297137480FF0E9F95EB327
:104C5000731E012B56D8012E06D1354BD3F8503494
:104C600003F00303012B1FD012F0E6FC0546E8B960
:104C7000304B1B78D3B1042207462D4BC3F80823D1
:104C80002B4CDFF8B480D4F84C24D4F84C34D20345
:104C900015D503F00303012B01D0012E0FD165B30D
:104CA00087F31188BFF36F8FBDE8F081EFF31187B1
:104CB000202383F31288BFF36F8F0125E0E7BDB196
:104CC00038460FF090FAD4F8403413F0FF03DAD1ED
:104CD000D4F80821002AD6D0C4F80831D4F8083115
:104CE00020220123C4F84034C8F8A0212361CAE778
:104CF0000021202009F0C2FAE5E704220C4BC3F89A
:104D00000423D1E70D4940F2B623074A07480FF0C4
:104D100090F940F2B62197E77C1300206C13002035
:104D2000A0130020A1A1010040A10100E69701000D
:104D300000E01050CE58012000E100E0B4CA0100AC
:104D400008B5074812F006FC38B10648FFF734FCF6
:104D50000448FDF787FF002008BD6FF01200FBE755
:104D600054790100694D00000A2838B50446074D02
:104D700004D1AB680D2128465B689847AB680348AF
:104D80005B68E1B29847204638BD00BF5479010006
:104D900038B508461446EFF31185202383F31288B3
:104DA000BFF36F8F114605F015FE85F31188BFF331
:104DB0006F8F064B984201D1204638BD044B984274
:104DC00014BF6FF00A006FF01500F6E70000AD0B9E
:104DD0000400AD0B08B505F0DDFD034B984214BF90
:104DE0006FF00400002008BD0000AD0B0023024A54
:104DF0000020C1E9002370470050160000487047AA
:104E000068850100024B0B6001231360704700BFEF
:104E10007085010008B501220448114612F0DAFB42
:104E2000034B044A0020C3F80C2508BDDC13002006
:104E300000B004508000008010461A46084B10B5A0
:104E4000994209D8C1F5B21404F58054A24203D89E
:104E5000FBF716FB002010BD6FF01500FBE700BF4D
:104E6000FF4F1600F8B51E4B054698420E461446F5
:104E700033D8C0F5B21303F580539A422DD82AB324
:104E80004FF0FF324FF0FF33164807F019FF40F2A2
:104E90000113154F2246C7F80035CEB131462846DA
:104EA000FBF7EEFABFF35F8FD7F81834DA0705D4B3
:104EB000230703D00123BB60BFF35F8F4FF48072E1
:104EC000094BC3F80025074807F076FE0020F8BD1F
:104ED000FF2128460AF098FCE4E76FF01500F6E79A
:104EE000FF4F1600DC13002000B0045010B503691A
:104EF00061B920493F23204A20480FF09AF8204802
:104F00000FF097F83F211C480FF08AF8486850B915
:104F10001C494023184A19480FF08BF81A480FF023
:104F200088F84021EFE75868F8B1884219D19C68A9
:104F30000868A142586000D19860002008602AB13A
:104F40005A680A609A68596002B99960002010E0B6
:104F5000814206D10868206098688142EDD19C604A
:104F6000EBE7044600680028F2D1002AE8D16FF090
:104F7000150010BD10A20100D4A10100E6970100A8
:104F800019A2010028A201003AA2010070B54568EB
:104F900006462B69E3B11035284606F01DFA044693
:104FA000B0B90146284606F0D7F90E4B984215D104
:104FB000224628460C4906F091F922460121DB20C1
:104FC000FEF7B8FF2246012140F20D10FEF7B2FFB6
:104FD0003046BDE8704005490FF0B7B86FF00400E7
:104FE00070BD00BF0000AD0B055300007F43010002
:104FF00008B503685F2B4FEA531107D80C4A03F03A
:105000001F0352F82120DA40D2070BD409490A487D
:1050100040F2C733094A0FF00CF840F2C731074895
:105020000EF0FEFF0360064B53F8210008BD00BFE1
:105030008485010084A20100E697010051A20100CD
:1050400078850100F0B5406801F01F04057B87B04A
:1050500044EA45140569002D77D0B2F5001F00F130
:10506000100506D12146284612F0E4F9002007B0C9
:10507000F0BD0027B2F5800F01AE0197776033D104
:10508000B3F1007F14BF052304238DF804300023FF
:10509000CDE9046303938368CB40D90739D4B2F1D7
:1050A000A07F36D168460094FFF7A2FF009B203313
:1050B00050F82330DB072CD46A462146284606F0F8
:1050C0001BF9254B98421AD0CDF808D02146284626
:1050D00003AA05F079FF214B984239D101222146DC
:1050E000284606F09FF9C1E7B3F1C06F05D0B3F1D0
:1050F000007F14BF01230223C7E70323C5E76946E6
:10510000284606F083F9154B9842DDD06FF00B006E
:10511000ADE76A462146284606F0EEF80F4B0646F4
:105120009842D3D128469DF8001006F063F9B042AA
:10513000CCD00B490B4840F2BD130B4A0EF079FF5F
:1051400040F2BD1108480EF06BFF6FF085008EE74E
:105150006FF015008BE700BF0400AD0B0000AD0B36
:10516000D3A20100E6970100A7A201002DE9F043B8
:10517000466840F20635337BD00601F01F0747EA48
:10518000431748BF032302EA050558BFC2F3401383
:1051900087B0B5F5837F14468DF8033044D00DD821
:1051A000062D43D005D8A5B1022D12D06FF0150001
:1051B00037E0B5F5807FF9D101250AE040F20222FF
:1051C000954235D0B5F5407F34D0B5F5007FEDD1AF
:1051D00004250123220303FA01F12DD573685960D8
:1051E000336973BB03A80397FFF702FF039B00EB30
:1051F000830084F48033C3F30043C4F34044D0F805
:10520000802044EA43049DF8033022F4706244EAAB
:10521000830422F00F0244EA05231343C0F88030D0
:10522000002007B0BDE8F0830925D2E70825D0E7C4
:105230000625CEE70525CCE7630344BF7368996074
:10524000CEE71036394630460DF1020206F054F82A
:1052500014F4403F804617D13946304612F0E8F842
:10526000244B9845DCD130469DF8021006F0C2F878
:105270004045D5D020492148D723214A0EF0D9FEF8
:10528000D7211F480EF0CCFE4FF0000901AB394684
:10529000304603AACDE90439CDE90199CDF80C9047
:1052A00005F092FE134B9842BAD114F4003315D096
:1052B0009DF8033084F48034C4F300448DF80E303C
:1052C00039464B46304603AA8DF80C508DF80D40F8
:1052D00005F06AFF074B9842A2D1C1E7CDE904333C
:1052E00039460DF10303304603AA039305F06CFE23
:1052F000F0E700BF0000AD0BD3A20100E69701006C
:10530000A7A201004209022A034670B503D0012A70
:105310001FD002B370BD154E326951680029F9D013
:10532000012503F01F030C689D400029F2D08A6814
:105330002A4014D04B6883B90D4964230D4A0E48A6
:105340000EF077FE0D480EF074FE642109480EF051
:1053500067FE0B4EE0E70B4EDEE7304698471CB188
:10536000236821461C46E0E72346FAE7E878010077
:10537000F7D10100D4A10100E69701003AA2010093
:10538000C4780100A078010010B5144C204612F03A
:10539000E1F800B36368A1681B6822699B070BD51D
:1053A0001368204623F0020313600B6800220121DA
:1053B000984700EAE07010BD094940F2FD33094A00
:1053C00009480EF036FE09480EF033FE40F2FD317A
:1053D00004480EF025FE6FF01200ECE7A078010003
:1053E000EC9801007C970100E69701002A990100E2
:1053F00008B503685F2B4FEA531107D80C4A03F036
:105400001F0352F82120DA40D2070BD409490A4879
:1054100040F2C733094A0EF00CFE40F2C73107488C
:105420000EF0FEFD0360064B53F8210008BD00BFDF
:10543000E485010084A20100E697010051A2010069
:10544000D88501002DE9F04F9246074640F2FF193A
:10545000DFF840B185B000EB8108B84503D10020EA
:1054600005B0BDE8F08F3B68C3F3C3210829C3F33F
:10547000080400F28C80484A4C4508BF4FF0FF34C6
:10548000B3F1B05F565C4FEA13610ED215290ED806
:10549000DFE801F010161D572026570D0D0D0D0DDC
:1054A0000D0D0D0D0D0D0D0D5A5D382952D06FF0FB
:1054B0008500D5E7CAF80446601C5ED10437CCE706
:1054C000CAF80C46651CF9D00025294616E0CAF832
:1054D0001046F1E7611CCAF80046EFD0002504E051
:1054E000CAF80446621CE9D0012503A80394FFF71B
:1054F0007FFF0121039B01FA03F383603B68039460
:1055000003F40040002818BF002103A818BF01259C
:1055100001930091FFF76CFF039C019B00EB84005B
:10552000D0F88040C3F3412C0099330243EA8C0346
:105530000B4304EA0B04234343EA4503C0F88030DD
:10554000BCE7CAF80846BDE7CAF84045CAE7CAF84A
:105550004445B7E703A80394FFF74AFF039B00EB1A
:105560008300D0F8803023F0E04343F08043C0F85C
:105570008030631CA2D00125A7E7012503A803946E
:10558000FFF736FF039B05FA03F343609DE76FF0D7
:10559000150065E7F0F0FCFF09A30100012310B539
:1055A00003FA01F1436804691B6819420ED10E49E0
:1055B00040F28E630D4A0E480EF03BFD0D480EF092
:1055C00038FD40F28E6109480EF02AFD2368194229
:1055D00018BF82F0010222B18368DB68BDE8104089
:1055E000184783681B69F9E7EC9801007C97010074
:1055F000E69701002A990100F7B5446805460EF0C8
:10560000E3FEA06A00287CD011F0A4FF00287AD025
:10561000E78DA06A94F82C1047F4003207F03006AA
:10562000302ED0F810C0D0E9013E0ED1384940F2FA
:10563000E333384A38480EF0FCFC38480EF0F9FCE9
:1056400040F2E33133480EF0EBFC07F00606042E7F
:1056500009D1334940F2EA332E4A2F480EF0E9FCD3
:1056600040F2EA31EEE701261B688E401E420CD163
:105670002C4940F2FD33274A27480EF0DAFC2A482D
:105680000EF0D7FC40F2FD31DCE7DCF80030FF071C
:105690004CBF3343B343CCF80030DEF800309847BA
:1056A000002832DB94F82C30A06A01249C40436827
:1056B0001B681C420CD11B4940F23563154A164841
:1056C0000EF0B7FC18480EF0B4FC40F23561B9E7B3
:1056D0000669836801A95B689847002809D014DB34
:1056E000011E18BF0121284603B0BDE8F0400EF0AE
:1056F000E4BE3268019B5340234214BF01200020C6
:10570000EEE70146EFE76FF0120003B0F0BD00BF17
:10571000AD9701007C970100E69701000398010016
:1057200040980100EC9801002A99010030B44268C9
:1057300053691468C4F82435D18B938B957E0B4341
:10574000118C0B43518C0B43517E127E29430A432B
:105750009BB21343C4F86C3541680B68D3F8002240
:1057600042F48022C3F800220822C3F800254A6AC6
:105770000121C3F83C270022C3F840271965D3F85C
:1057800030110029FBD0C3F80025024930BC0EF0CF
:10579000DCBC00BF2D4801002DE9F04104460D4658
:1057A000476811F049FFA0B9224B1B788BB14FF02D
:1057B0002008642663681B68D3F8303143BB01209E
:1057C00011F05CFD013EF5D10021202008F056FDCE
:1057D000EFE72022EFF311831E4682F31288BFF316
:1057E0006F8F61680968D1F8301121B983F311888E
:1057F000BFF36F8FEEE77B6A01221D702046796A46
:105800000EF0CFFF86F31188BFF36F8FBDE8F081F4
:10581000EFF311831E4688F31288BFF36F8F62681F
:105820001268D2F83021002AE5D183F31188BFF342
:105830006F8FC9E7CE58012008B503685F2B4FEA88
:10584000531107D80C4A03F01F0352F82120DA4005
:10585000D2070BD409490A4840F2C733094A0EF06F
:10586000E8FB40F2C73107480EF0DAFB0360064B55
:1058700053F8210008BD00BF6C87010084A201001D
:10588000E697010051A2010060870100012310B5D5
:1058900003FA01F1436804691B6819420ED10E49ED
:1058A00040F28E630D4A0E480EF0C3FB0D480EF019
:1058B000C0FB40F28E6109480EF0B2FB236819422A
:1058C00018BF82F0010222B18368DB68BDE8104096
:1058D000184783681B69F9E7EC9801007C97010081
:1058E000E69701002A9901002DE9F843446806690A
:1058F00005460021E06B0FF064F8002821DB216CE5
:10590000481C15D10127636B9847B4680834D6E961
:10591000023203EBC203A4F10802934213D83046CB
:105920000FF09BF82846BDE8F84338490EF00DBC4F
:1059300004F1440000F096FA10F1130F01D0411D5C
:10594000E0D1BDE8F88354F8080C11F003FE0028FC
:1059500058D054F8080C14F8041C34F8023C03F036
:105960003002302AD0F81080D0E901C90ED1284980
:1059700040F2E333274A28480EF05BFB27480EF03D
:1059800058FB40F2E33123480EF04AFB03F00602D5
:10599000042A09D1224940F2EA331E4A1E480EF079
:1059A00048FB40F2EA31EEE7DCF800C0DA0707FA1C
:1059B00001FE54BF43F4B01383F4D0131EEA0C0F5E
:1059C00023F480120CD1174940F2FD33114A1248DA
:1059D0000EF02FFB14480EF02CFB40F2FD31D2E705
:1059E000D8F800C0DB074CBF4EEA0C032CEA0E03CC
:1059F000C8F80030D9F800309847002804F10804AE
:105A000085DA9EE76FF012009BE700BFE1490100D5
:105A1000AD9701007C970100E69701000398010013
:105A200040980100EC9801002A9901002DE9FF41FE
:105A300005690646D0F80480A86D2B6E002835D184
:105A4000002B53D0B8F838406A6D9C4228BF1C46E2
:105A5000EF6DEB6D53B1296E41B107F06041B1F1CB
:105A6000005F03D0082C28BF08246F6F00926A6D76
:105A7000AC661AB1AA6D002A18BF2246CDE90127EB
:105A80001BB12B6E002B18BF2346002269464046EF
:105A9000039306F051FB184B984229D06FF0040194
:105AA000304604B0BDE8F0410EF0F9BF696DEF6D0E
:105AB0000A46B8F83840ABB1834228BF03469C423F
:105AC00028BF1C460029C4D001F06043B3F1005F39
:105AD000BFD0082C28BF0824286F2246FAF7D0FC34
:105AE0002A6FB6E7844228BF0446EBE71946D7E79A
:105AF00004B0BDE8F08100BF0000AD0B2DE9F04F10
:105B000091B001934368074602938B880469980417
:105B1000884691462ED44FF0FF324FF0FF3304F108
:105B2000100007F0CDF8C4F80480D7F804B0D7F817
:105B300010A0DBF8083003939AF86D3023B1DAF83F
:105B40000030984500F0A580B8F804E01EF4006F1E
:105B500017D06FF08505236813B19B889B0405D48B
:105B60000023636004F1100007F026F8284611B006
:105B7000BDE8F08FA369002BCDD163689942CAD1EB
:105B8000D3E71EF0090F02D06FF01505E3E7CEF35F
:105B90004513082BF8D1D8F800C08C4B9C45F3D99D
:105BA00006AD0BF10C060FCE0FC50FCE0FC5039B34
:105BB00096E80300634528BF63469C46844B85E80E
:105BC00003009C4517D2834B9C4514D2824B9C45C5
:105BD00011D2824B9C4544D8814B9C4543D8814B84
:105BE0009C4542D8804B9C4541D88049804B814A96
:105BF0008C4588BF13461EF0020F0B930EF0040372
:105C000037D0002B14BF032302238DF83030CEF39E
:105C100000138DF83130DBF80030D3F80036591C12
:105C20000AD01EF0020F059305A826D1FFF704FE47
:105C30000123059A934083609AF86D302BB1584642
:105C400006F01EFA00238AF86D303B4658466A4A31
:105C500006A906F0CFF9694B984215D06FF00405FC
:105C600079E7674BC7E7674BC5E7674BC3E7674B08
:105C7000C1E7003B18BF0123C7E7FFF7DDFD0123A4
:105C8000059A93404360D7E70123CAF800808AF859
:105C90006D30012384F86C30029B196C4A1C03D0D0
:105CA00003F1440000F00EF9B9F1000F68D1C4F817
:105CB00044900023A36404F1580204F1480104F164
:105CC00044000EF06BFE019B6065002B60D1E36425
:105CD0000023236504F1600204F1500104F14C003B
:105CE0000EF05CFE002501212A46E0652564204671
:105CF0000EF092FE3846FFF799FE2A462B46A06C1E
:105D000083424DD100231946256DA9424FD19A42B5
:105D100038BF1A4626464FF4FA534FF0000803FBEB
:105D200002F556F8283B47F6122C1B684146B5FB96
:105D3000F3F540F2E730C8354FF47A720023E5FB03
:105D40000C01FBF7A5F902460B46304606F0B8FFFA
:105D5000024618B9256C15F1740F2FD10298C4F8BA
:105D6000688006F08DF96FF07301384684F86D8015
:105D70000EF095FE304607F01DF86FF07305EAE669
:105D8000D9F800306364002B93D0D9F8043091E740
:105D9000019B1B68E364002B9AD0019B5B6898E72A
:105DA000616C01EBC301496801330A44A8E7E06C68
:105DB00000EBC100406801310344A6E7002D3FF429
:105DC000CAAE014638690EF027FEC4E647E8010076
:105DD0000048E8010024F40000127A00FF083D00AA
:105DE0007F841E003F420F001FA107008FD00300D9
:105DF00048E8010090D00300C14A01000000AD0B4B
:105E000000093D0080841E0040420F0020A10700D1
:105E100008B503685F2B4FEA531107D80C4A03F00B
:105E20001F0352F82120DA40D2070BD409490A484F
:105E300040F2C733094A0EF0FCF840F2C731074878
:105E40000EF0EEF80360064B53F8210008BD00BFCA
:105E50000C88010084A20100E697010051A2010014
:105E6000008801000123F0B587B08DF802300223CD
:105E700000248DF804306B4403930F4601AB0DF101
:105E80000301049305460291059405F0BFFA0C4BFB
:105E9000064698420FD13946284603AA05F094F8E1
:105EA000B0420BD028469DF8031005F0A3FA6FF01E
:105EB000040007B0F0BD6FF01200FAE72046F8E7E3
:105EC0000000AD0BF7B50C46054611F0B5FA0022FF
:105ED00021460646284605F0A5FA01A80194FFF7D9
