:10000000B08F0120353A0000BD340000213A0000D5
:10001000213A0000213A0000213A0000213A000074
:10002000000000000000000000000000FD3A000099
:10003000213A000000000000A13A0000213A00002F
:10004000453D0000453D0000453D0000453D0000A8
:10005000453D0000453D0000453D0000453D000098
:10006000453D0000453D0000453D0000453D000088
:10007000453D0000453D0000453D0000453D000078
:1004800081F0004102E000BF83F0004330B54FEA45
:1004900041044FEA430594EA050F08BF90EA020FB2
:1004A0001FBF54EA000C55EA020C7FEA645C7FEA45
:1004B000655C00F0E2804FEA5454D4EB5555B8BF68
:1004C0006D420CDD2C4480EA020281EA030382EAD9
:1004D000000083EA010180EA020281EA0303362D6B
:1004E00088BF30BD11F0004F4FEA01314FF4801C3E
:1004F0004CEA113102D0404261EB410113F0004F50
:100500004FEA03334CEA133302D0524263EB430306
:1005100094EA050F00F0A780A4F10104D5F1200EA4
:100520000DDB02FA0EFC22FA05F2801841F10001FF
:1005300003FA0EF2801843FA05F359410EE0A5F1D3
:1005400020050EF1200E012A03FA0EFC28BF4CF004
:10055000020C43FA05F3C01851EBE37101F00045BA
:1005600007D54FF0000EDCF1000C7EEB00006EEBC7
:100570000101B1F5801F1BD3B1F5001F0CD3490851
:100580005FEA30004FEA3C0C04F101044FEA4452A8
:1005900012F5800F80F09A80BCF1004F08BF5FEA2F
:1005A000500C50F1000041EB045141EA050130BD0F
:1005B0005FEA4C0C404141EB0101013C28BFB1F521
:1005C000801FE9D291F0000F04BF01460020B1FA6C
:1005D00081F308BF2033A3F10B03B3F120020CDA3F
:1005E0000C3208DD02F1140CC2F10C0201FA0CF01D
:1005F00021FA02F10CE002F11402D8BFC2F1200C82
:1006000001FA02F120FA0CFCDCBF41EA0C01904037
:10061000E41AA2BF01EB0451294330BD6FEA040480
:100620001F3C1CDA0C340EDC04F11404C4F120026B
:1006300020FA04F001FA02F340EA030021FA04F37D
:1006400045EA030130BDC4F10C04C4F1200220FAD4
:1006500002F001FA04F340EA0300294630BD21FA12
:1006600004F0294630BD94F0000F83F4801306BFD8
:1006700081F480110134013D4EE77FEA645C18BFCC
:100680007FEA655C29D094EA050F08BF90EA020F63
:1006900005D054EA000C04BF1946104630BD91EA5B
:1006A000030F1EBF0021002030BD5FEA545C05D15E
:1006B0004000494128BF41F0004130BD14F580049D
:1006C0003CBF01F5801130BD01F0004545F0FE4111
:1006D00041F470014FF0000030BD7FEA645C1ABF46
:1006E000194610467FEA655C1CBF0B46024650EA7D
:1006F000013406BF52EA033591EA030F41F40021A9
:1007000030BD00BF90F0000F04BF0021704730B52E
:100710004FF4806404F132044FF000054FF0000103
:1007200050E700BF90F0000F04BF0021704730B5C4
:100730004FF4806404F1320410F0004548BF404299
:100740004FF000013EE700BF42004FEAE2014FEAEE
:1007500031014FEA02701FBF12F07F4393F07F4FC9
:1007600081F06051704732F07F4208BF704793F0CC
:100770007F4F04BF41F40021704730B54FF46074DF
:1007800001F0004521F000411CE700BF50EA0102E2
:1007900008BF704730B54FF000050AE050EA01028B
:1007A00008BF704730B511F0004502D5404261EBFB
:1007B00041014FF4806404F132045FEA915C3FF43C
:1007C000D8AE4FF003025FEADC0C18BF03325FEAD9
:1007D000DC0C18BF033202EBDC02C2F1200300FA8A
:1007E00003FC20FA02F001FA03FE40EA0E0021FAAF
:1007F00002F11444BDE600BF70B54FF0FF0C4CF49D
:10080000E06C1CEA11541DBF1CEA135594EA0C0F4E
:1008100095EA0C0F00F0DEF82C4481EA030621EA89
:100820004C5123EA4C5350EA013518BF52EA0335C4
:1008300041F4801143F4801338D0A0FB02CE4FF076
:100840000005E1FB02E506F00042E0FB03E54FF0A6
:100850000006E1FB03569CF0000F18BF4EF0010E9E
:10086000A4F1FF04B6F5007F64F5407404D25FEA9A
:100870004E0E6D4146EB060642EAC62141EA55514D
:100880004FEAC52040EA5E504FEACE2EB4F1FD0C8F
:1008900088BFBCF5E06F1ED8BEF1004F08BF5FEA0D
:1008A000500E50F1000041EB045170BD06F00046BF
:1008B00046EA010140EA020081EA0301B4EB5C046C
:1008C000C2BFD4EB0C0541EA045170BD41F4801164
:1008D0004FF0000E013C00F3AB8014F1360FDEBF89
:1008E000002001F0004170BDC4F10004203C35DA65
:1008F0000C341BDC04F11404C4F1200500FA05F3E8
:1009000020FA04F001FA05F240EA020001F0004288
:1009100021F0004110EBD37021FA04F642EB0601FE
:100920005EEA430E08BF20EAD37070BDC4F10C0428
:10093000C4F1200500FA04F320FA05F001FA04F2EC
:1009400040EA020001F0004110EBD37041F10001D8
:100950005EEA430E08BF20EAD37070BDC4F12005E3
:1009600000FA05F24EEA020E20FA04F301FA05F24B
:1009700043EA020321FA04F001F0004121FA04F2F3
:1009800020EA020000EBD3705EEA430E08BF20EAC3
:10099000D37070BD94F0000F0FD101F000464000FD
:1009A00041EB010111F4801F08BF013CF7D041EA7F
:1009B000060195F0000F18BF704703F00046520083
:1009C00043EB030313F4801F08BF013DF7D043EA54
:1009D0000603704794EA0C0F0CEA135518BF95EA0A
:1009E0000C0F0CD050EA410618BF52EA4306D1D191
:1009F00081EA030101F000414FF0000070BD50EAB0
:100A0000410606BF1046194652EA430619D094EA39
:100A10000C0F02D150EA013613D195EA0C0F05D123
:100A200052EA03361CBF104619460AD181EA030177
:100A300001F0004141F0FE4141F470014FF000002F
:100A400070BD41F0FE4141F4780170BD70B54FF0CA
:100A5000FF0C4CF4E06C1CEA11541DBF1CEA13554A
:100A600094EA0C0F95EA0C0F00F0A7F8A4EB05042C
:100A700081EA030E52EA03354FEA013100F0888023
:100A80004FEA03334FF0805545EA131343EA1263EC
:100A90004FEA022245EA111545EA10654FEA0026A1
:100AA0000EF000419D4208BF964244F1FD0404F55A
:100AB000407402D25B084FEA3202B61A65EB0305B6
:100AC0005B084FEA32024FF480104FF4002CB6EB73
:100AD000020E75EB030E22BFB61A754640EA0C00F3
:100AE0005B084FEA3202B6EB020E75EB030E22BF33
:100AF000B61A754640EA5C005B084FEA3202B6EB74
:100B0000020E75EB030E22BFB61A754640EA9C0032
:100B10005B084FEA3202B6EB020E75EB030E22BF02
:100B2000B61A754640EADC0055EA060E18D04FEAC0
:100B3000051545EA16754FEA06164FEAC30343EA60
:100B400052734FEAC2025FEA1C1CC0D111F4801F2D
:100B50000BD141EA00014FF000004FF0004CB6E726
:100B600011F4801F04BF01430020B4F1FD0C88BFC5
:100B7000BCF5E06F3FF6AFAEB5EB030C04BFB6EBD0
:100B8000020C5FEA500C50F1000041EB045170BDC3
:100B90000EF0004E4EEA113114EB5C04C2BFD4EBF0
:100BA0000C0541EA045170BD41F480114FF0000E74
:100BB000013C90E645EA060E8DE60CEA135594EAF0
:100BC0000C0F08BF95EA0C0F3FF43BAF94EA0C0FF3
:100BD0000AD150EA01347FF434AF95EA0C0F7FF468
:100BE00025AF104619462CE795EA0C0F06D152EABC
:100BF00003353FF4FDAE1046194622E750EA4106A0
:100C000018BF52EA43067FF4C5AE50EA41047FF4B0
:100C10000DAF52EA43057FF4EBAE12E74A0011D262
:100C200012F5001211D20DD56FF47873B3EB625246
:100C30000ED44FEAC12343F0004343EA505323FA52
:100C400002F070474FF00000704750EA013002D1C7
:100C50004FF0FF3070474FF00000704753B94AB96A
:100C6000002908BF00281CBF4FF0FF314FF0FF30B4
:100C700000F00CB8ADF1080C6DE904CE00F01AF8E4
:100C8000DDF804E0DDE9022304B07047704700BFDF
:100C900010F8012B11F8013B012A28BF9A42F7D026
:100CA000D01A7047034613F8012B002AFBD1181AFB
:100CB000013870472DE9F04786468C460846089E65
:100CC000154674461946002B40F0C1808542B2FAA1
:100CD00082F245D94AB1C2F1200300FA02FC9540E4
:100CE00094402EFA03F343EA0C0C4FEA154EA8B2D7
:100CF000230CBCFBFEF80EFB18CC08FB00F943EA02
:100D00000C43994528D9EB1808F1FF3704D29945CF
:100D100002D9A8F102072B44A3EB0903A4B2B3FB49
:100D2000FEFC0EFB1C330CFB00F044EA0344A04223
:100D300014D92C190CF1FF3304D2A04202D9ACF122
:100D400002032C44241A43EA07401EB1D440002376
:100D500034607360BDE8F0874746DDE76346F1E73E
:100D600092BB431B01214FEA154EAFB2200CB3FBDF
:100D7000FEFC0EFB1C330CFB07F840EA03439845CE
:100D800061D9EB180CF1FF3004D2984502D9ACF1CF
:100D900002002B44A3EB0803A4B2B3FBFEFC0EFB42
:100DA0001C330CFB07F744EA0344A7424DD92C1926
:100DB0000CF1FF3304D2A74202D9ACF102032C4458
:100DC000E41B43EA0040C0E7C2F120039540944091
:100DD00020FA03F12EFA03F34FEA154E9040AFB21A
:100DE0000343B1FBFEFC0EFB1C10190C0CFB07F8B7
:100DF00041EA0041884522D969180CF1FF3004D23C
:100E0000884502D9ACF102002944A1EB08019BB24C
:100E1000B1FBFEFC0EFB1C110CFB07F743EA014380
:100E20009F420ED9EB180CF1FF3104D29F4202D938
:100E3000ACF102012B44DB1B41EA004193E7604621
:100E4000E3E76146F7E76046A4E76346B8E7834215
:100E500006D916B9002108467CE7C6E900E0F9E7A3
:100E6000B3FA83F78FB9834201D3724508D8BEEB3A
:100E7000020460EB030301209C461EB9002169E7D0
:100E80003846FAE7C6E9004CF8E7C7F1200CBB404A
:100E90000EFA07F522FA0CF42EFA0CF1BA401C43B4
:100EA00020FA0CF3B8404FEA144901431FFA84FEBC
:100EB000B3FBF9F809FB18300B0C08FB0EFA43EAF8
:100EC00000439A4540D9E31808F1FF3004D29A450F
:100ED00002D9A8F102002344A3EB0A0389B2B3FBB1
:100EE000F9F809FB183308FB0EFE41EA03418E4571
:100EF0002CD9611808F1FF3304D28E4502D9A8F12C
:100F00000203214443EA0040A1EB0E01A0FB02983A
:100F10004145CE46434602D306D14D4504D2013861
:100F2000B9EB020E68EB0403002EA7D0B5EB0E025E
:100F300061EB030101FA0CFC22FA07F3F9404CEAD9
:100F40000303C6E9003199E74046C5E74346D9E7C0
:100F500070B5002684B00446084615468DF800603A
:100F6000FFF7E0FB0EA3D3E90023FFF745FCFFF7F3
:100F700055FE0346284601938DF80860FFF7D2FB23
:100F800007A3D3E90023FFF737FCFFF747FE03462B
:100F9000022220466946039305F0C2FF04B070BDEB
:100FA0000000000080842E41704700BF2DE9F04F03
:100FB000714B85B0D3F800B0BBF1000F05D1012211
:100FC0006E4B1A7005B0BDE8F08F59466C4800F0C2
:100FD000A1FF6C4C0BF5F773A4FB03436A4AC3F300
:100FE0008F17C7EB4727C3F38F1A17600346BAF171
:100FF000000F00F0BE8065485E46B0F8009064487F
:101000000025044640F2EF1862490390B1F800C091
:101010005B4989EA0C0901EB0B028DE88C001FFA91
:1010200089F944F242632380019B4645E360009BBB
:10103000374628BF4746991B6FF4F773A5803A4699
:10104000A4F80290A4F806A0C4F808B004F11000B7
:101050001E4413F0EBFE40F2FF1107F1100088422E
:1010600005F101052044A8EB07020C4402D0002141
:1010700013F0E9FEAAB29245D3D8DDE902706FF011
:10108000FE234FF40079012140F2FF124FF0040BD0
:101090004FF4817A4FF0FF3847F25B5E4FF4967C55
:1010A0003D4E3E4D34684F45606128686362A062E2
:1010B00068793B4B84F830003A483B4DC4F8310026
:1010C0003A4884F800B0E0633948C4E9128E2064DD
:1010D0003848A4F835A060643748A4F83890C4F8BC
:1010E00054C0217184F837102282A7601A80E3610E
:1010F0000260298009DB23F8022F236240F2FE33CD
:10110000022203602D4B2A80A361012584F87050D0
:101110000CF07EFB0027336884464FF6B07105263D
:101120004FF00208264A2748DFF89CE0C4F868C060
:10113000A3F8A410C3F8A820C3E91D7083F89C503D
:10114000C3F8A0608EF800800CF062FB03461F49D4
:101150001F480A681F4C2A4400780A60236008F080
:1011600031FD00283FF42EAF044B1D7005B0BDE8E3
:10117000F08F074883E700BF802A01205C760120BA
:10118000842A0120675719218CF800205476012009
:1011900090F8002052760120885A0120900000200B
:1011A00084F800200702010750760120805F0100CB
:1011B0007C5F0100785F010088F800208FFA002032
:1011C000804F1200B51500005D7601206CF60020FE
:1011D0005F760120845A01202DE9F84F40F2FF1379
:1011E00000254EF660214FF4967201264FF0FF3E27
:1011F00047F25B5C4FF440504FF0040A4FF48179A2
:101200004FF400781C4F1D4CD4F800B03C6823828A
:10121000A4F864301A4BC4E91412C4F83130194BE5
:10122000C4E912ECE363184BC4F828B02364174BED
:1012300084F800A06364164BA4F835902366A4F8E4
:101240003880E0602571E56284F8376084F870606A
:101250000CF0DEFA01463B680E4A0F480F4FA166BC
:101260000078C3E91D523D7008F0ACFC08B10C4B8E
:101270001E70BDE8F88F00BF885A01209000002042
:1012800007020107805F01007C5F0100785F0100B9
:1012900084F60020B51500005F7601205D76012000
:1012A0005C7601202DE9F843214EDFF888C03578BF
:1012B0009CF800E0013505F0030575451446984695
:1012C000BDF820700AD19CF800301B4A013303F0AE
:1012D00003038CF800305369013353613378174AA4
:1012E000B0F800E080784FEAC32C02EBC32922F863
:1012F0000CE089F8020044B903247FB93278104B1E
:10130000357023F81240BDE8F883224609F1030046
:10131000033413F08BFDA4B2002FEFD009EB0400CF
:1013200041463A463C4413F081FDA4B2E6E700BFD3
:1013300058760120597601206CF600206CD60020EA
:1013400064D6002030B5054685B008460C46FFF748
:10135000A9FC002302464FF0450CD2B2214603A857
:1013600000938DF80D508DF80CC08DF80E20FFF70E
:1013700099FF05B030BD00BF30B51D481D4C1E4B58
:1013800005781B68A0681D498FB062680690ADF8AB
:101390000C300878190C1A4B05921B78194A8DF8F5
:1013A0000E10127821688DF82B30636904918DF846
:1013B00028508DF829008DF82A20D4E90302CDE9C0
:1013C000082307900CF024FA0F4B1B68C01A0B90EF
:1013D0000CF01EFA00230546E06828220D9004A9AF
:1013E00003A800930C95FFF75DFF0FB030BD00BF61
:1013F0005D7601206CF60020785D01005A760120B0
:101400005C7601205B7601207C2A0120F9B12DE970
:10141000F0410F4F0E460024D7F80880451E03E028
:101420000134A4B2B44210D015F8011FD8F804302A
:101430003846984704F07F037F2BF1D101346420B4
:10144000A4B20FF06BFEB442EED1BDE8F08170475C
:10145000C052010070B51A4302F03003302B04690A
:10146000D0E9016532D002F00603042B22D002F449
:101470004023B3F5402F47D00123366803FA01FC1F
:10148000D3070CEA06060ED582F4402323F480121B
:101490005EB3DB070AD523684CEA030323602B689D
:1014A000BDE87040184722F48012F6B1236823EAA1
:1014B0000C03F3E71C491D4840F2FE331C4A01F0BF
:1014C000DFFB40F2FE311A4801F0D0FB194940F22F
:1014D000F733174A154801F0D3FB174801F0D0FB4A
:1014E00040F2F731124801F0C1FB144940F21143B8
:1014F0000F4A0E4801F0C4FB114801F0C1FB40F255
:1015000011410B4801F0B2FB0E4940F20543084A75
:10151000064801F0B5FB0C4801F0B2FB40F2054172
:10152000034801F0A3FB00BF4C5E0100EC5D01002D
:101530007C5D0100B05D01000C5E0100FC5E0100FD
:101540003C5F0100805E0100D05E010010B51449CF
:10155000144A0B781078013303F00303834208D157
:101560001078114C013000F00300107062690132F4
:1015700062614FF6477E0A780C484FEAC22C20F889
:101580000CE04FF0010E4FF0030C00EBC222087884
:101590000B70074B82F802E023F810C010BD00BFAB
:1015A00058760120597601206CF600206CD6002078
:1015B00064D600202DE9F04F89B0132826D8DFE843
:1015C00010F04A00250025002500510025002500C7
:1015D0001400250025000301250025002500250015
:1015E00025002500250013012800B14B1C7801348B
:1015F000E4B20A2C1C7040F213810022AD48AE49BF
:1016000002700A601A700022AC4B1A7009B0BDE873
:10161000F08FAB49AB48AC4C8B680268246801334F
:10162000A2428B60F2D240F2FF16A84C02F2FF12E7
:101630000260A74A23881268A64D03F00101A6485C
:1016400002EB810225F81160C3EB43210144013311
:1016500051612380DAE79A4A13690133136109B0B3
:10166000BDE8F08F9A4B964D1B68EA68B3F87C1082
:1016700001320F29B3F97E601C6EEA60C6D944F2CC
:1016800042632288B4F802A09A42B4F80490E78832
:10169000D4F80880D4F80CB0B8D17B1E7F2BB5D815
:1016A000B8F5405FB2D80CF0B3F84FF0FF334FF00D
:1016B000000C9E466146894A03900296107802F516
:1016C0004056002800F0CB805088504500F016812D
:1016D000D6F8940070453CBF86468C46013102F531
:1016E0004252042902F11802E8D10022029E02921D
:1016F00000221046CDE904C4DFF8E4E177494FEA5F
:10170000820C11F8221081B1039C5EF82210611A3C
:1017100041F28834A14208D94FF00004B3F1FF3FF1
:1017200008BF03466D4901F80C400130042802F659
:101730002642E3D1DDE904C4029A002A00F0948035
:101740000298039B00F5405AB945CAF89430AAF8AC
:101750009260BFF45BAF00EB0902937C002B7FF437
:1017600055AF40F2EF13012103FB09F99174A8EB87
:1017700009029A4228BF1A46038A0B44038209EBE6
:101780000203B3F5405F40F2B180029B9A881B8A46
:1017900093427FF43BAF02998A7C002A3FF436AF34
:1017A0000B445B7C002B3FF431AF0E4601F19204F9
:1017B0002046896800F0AEFBF368834200F0A68003
:1017C0000023029A137021E73C4C3A4A2378012BFC
:1017D00022D0002301253849424823701370057038
:1017E0000B6009B0BDE8F08F344C2378012B0AD090
:1017F0002378022B25D02378002B7FF407AF01221A
:10180000384B1A7002E72B4B1B78002BF0D009B035
:10181000BDE8F04FFFF7CABB1378002BD9D0F6E72D
:101820000BF0F6FF062C28BF06244FF0FF33A34031
:1018300020EA03040BF0ECFF2B4A431C2344136003
:10184000E1E6FFF783FE00230121194A194D1370C9
:101850001948244A23702B7003601170D6E6B3F147
:10186000FF3F08BF0B4639E75A1C07D143F29802E5
:10187000634602FB0CF219480299815443F2980224
:1018800002FB03F31548002118440493029013F05F
:10189000DAFA01220298049BA0F802A087800F4880
:1018A000C254083340F803800344C3F804B047E748
:1018B0005A7601205B760120802A01205D76012086
:1018C0006CF6002088F800208CF80020507601206B
:1018D000885A012084F8002090F800207008002029
:1018E000043900205C7601207C2A012009F192094C
:1018F00004F11001484413F099FA46E743F29802C4
:101900001648029E02FB01020292F1E66B68BAF8E9
:10191000922001336B60029BADF818209B689AB24D
:101920008DF81D30C3F307238DF81E305223511D4F
:1019300089B2B1F5006F8DF81C300BD80225214615
:1019400006AB07A80095FFF7ADFC054B187809F02A
:101950004DFE35E76B6901336B61F6E770080020D7
:101960005F7601202DE9F04F87B012F011FA0B4697
:1019700045015A012D1A42EAD06262EB0302A90026
:1019800092000C1842EA957243EB0203D90047F625
:1019900012220023E00041EA5471FFF75FF984B29C
:1019A00012F0F6F90B4645015A012D1A42EAD062AF
:1019B00062EB0302A9009200081842EA957243EB19
:1019C0000203D90047F61222002341EA5071C000F9
:1019D000FFF744F9B4EB104F0EBF0124030C5C4039
:1019E000B34B1C80B3480FF0CBFB002800F09F8066
:1019F000002147F6122011F0AFFAAF480FF0C0FBFC
:101A0000002840F03D82AC480FF0BAFB002840F0BF
:101A10002F82AA4B18680BF0D1FE07F009FF0320B4
:101A200007F0ECFFA64AFF28107000F0148207F0C0
:101A3000D1FFA44A1060002800F00D82A24BA349F8
:101A40001A7B0093012A816701D0FFF7C5FB0123B0
:101A50009F4ADFF880B2019213700BF0D9FECBF8E9
:101A60000000FFF773FD9C4D9C4E9D4F914CDFF89D
:101A700074A2DFF87482DFF87492CDF808B012F027
:101A800087F92B78EBB14A0143011B1A42EAD06275
:101A900062EB0102920042EA93729B00181841EB3C
:101AA0000201C900002341EA507147F61222C0002A
:101AB000FFF7D4F83368C01A642802D900232B70CA
:101AC0003B80A3681B68002B46D020460DF1160111
:101AD0009847002840D112F05BF94FEA401B4FEACB
:101AE000411CBBEB000B4CEAD06C6CEB010C4FEAD9
:101AF0008B0E4FEA8C0C1EEB00004CEA9B7C41EBFA
:101B00000C01C900002341EA507147F61222C000BF
:101B1000FFF7A4F82B783060062B17D8DFE813F016
:101B200000013A01C000A7008D0070000A0007B054
:101B3000BDE8F08F3B889DF816206D49CA540133EB
:101B40009BB2072B3B80BCD9FFF700FD00232B7015
:101B5000A3681B68002BB8D1019B1B78002B4CD0CD
:101B6000644B1B7833B1644B1B7803F0FF02002BEE
:101B700000F05C81009B1B7B022B07D05F4B1B7826
:101B800023B15D4B1B78002B00F0558107F00CFF53
:101B9000594B1B78022B00F02D810BF039FE42F2DD
:101BA0000F72029B1B68C31A934200F21E81DFF87A
:101BB00050B1544B9BF800201B789A421DD09BF8E3
:101BC0000030514A9BF8001032F813204F4B504818
:101BD00003EBC121039213F029F99BF80030013384
:101BE00003F003038BF8003020460FF0C9FA20B150
:101BF000039A47481146FFF709FC11F055F83EE7F4
:101C00003B889DF8162009F8032001339BB20E2B68
:101C10003B807FF656AF4FF00102364B1A70009AA8
:101C2000D9F800301360B9F808309380D9F80A3039
:101C3000936099F80E30137386E73B889DF8162061
:101C40003449CA54B8F8002001339BB293423B8018
:101C5000FFF437AF304B1A604FF00102274B1A7078
:101C600000232E4A2B7013880133138029E74FF08D
:101C7000000BB8F800309DF81620A7F800B043EA32
:101C800002239AF80020A8F80030432A00F094803C
:101C9000013BB3F5405F80F09E8004232B7010E77A
:101CA00003232B709DF81630A8F8003009E700BF19
:101CB00052760120C05201005452010080060020DB
:101CC0005F760120885A012090000020B5150000A1
:101CD0005E760120782A01205776012048CE002028
:101CE0004C760120567601204E76012054CE0020FD
:101CF0004CCE00205C7601205D7601205B760120D1
:101D0000597601205876012064D600206CD6002038
:101D100064CE0020842A0120802A012054760120EC
:101D20009DF81630542B8AF800304ED0433B152BCB
:101D30003FF6C7AE01A252F823F000BF9F1D00007E
:101D4000C31A0000C31A0000C31A0000C31A00001F
:101D5000C31A0000C31A0000C31A0000C31A00000F
:101D6000C31A0000C31A0000C31A0000C31A0000FF
:101D7000C31A0000C31A0000C31A0000B31D0000FC
:101D8000C31A0000C31A0000C31A0000A91D0000F6
:101D9000911E00009DF81630582B7FF4D7AE022319
:101DA0002B7000233B808CE606232B7000233B80A6
:101DB00087E6FFF7E1FA84E60F2B13D003204349AF
:101DC000FFF7C0FA85F800B07BE64FF001032B70F7
:101DD00000233B8075E602203D49FFF7B3FA85F802
:101DE00000B06EE605232B706BE6029B1860FFF7D0
:101DF000C3FADCE60BF00CFD41F28832354B1B6870
:101E0000C31A93427FF6C9AE0023334A1078334A8F
:101E10001370334A1370334A1360334A13704FF010
:101E20000102324B1A7007F013FEB6E62F4B1A7000
:101E3000FFF7D2F99EE60BF0EBFC2D4B1B689842A6
:101E4000FFF4A4AE4FF00102244B1A70224B187815
:101E500007F0FEFD9AE60023264A274C0120274979
:101E6000DFF89CB0019200941370FFF76BFAFAE56B
:101E70004FF4B013012205212248FFF7EBFAC8E521
:101E80004FF4D013002203211E48FFF7E3FABAE50E
:101E900047238DF817301C480FF072F920B101214B
:101EA0000DF11700FFF7B2FA42F210700FF036F999
:101EB000BFF34F8F1549164BCA6802F4E062134313
:101EC000CB60BFF34F8F00BFFDE700BF645F010031
:101ED0006C5F0100845A01205F7601205D7601204D
:101EE0005B760120802A01205A7601205C76012051
:101EF0007C2A01205E76012090000020505F0100C6
:101F0000782A012054520100C052010000ED00E087
:101F10000400FA05C0B1C1B14FF0FF3310B4194449
:101F20000B4C00EB030C084408221CF8011F4B402B
:101F300003F001015B0801B16340013AF8D160454B
:101F4000F2D1D84310BC704770470846704700BFB5
:101F50002083B8ED30B500EBC10463884FEAC10CB3
:101F60005B08B3FA83F3C3F11F0300EB83052A690F
:101F70000CF1040C1FFA81FE62B901249C40C36875
:101F80006EF30F022343C3606EF31F42296140F8D2
:101F90000C2030BDD3000433C15A20F80C1000EBE4
:101FA000C101E280A1F806E020F803E030BD00BFE7
:101FB000B2F5802F2DE9F0413CD2042A67D9043ACA
:101FC000CE1D8C1826F0070624F00704A41B172C3E
:101FD0004FEAD4074CD9B7FA87F24FF00008C2F1A4
:101FE0002405AD000735ED086B1CBB420660C2F14D
:101FF0002002C6E902782CD84146920006F1100072
:1020000012F021FF6A0042F00102728001227B1B64
:1020100006EBC50103FA02F0A6F80080488026F816
:10202000355033533444628029463046BDE8F04190
:10203000FFF790BF1D4940F213231D4A1D4800F0D1
:102040001FFE1D4800F01CFE40F21321184800F04E
:102050000DFE1A494FF40E73154A164800F010FE93
:10206000174800F00DFE4FF40E71114800F0FEFD10
:10207000144940F223230E4A0E4800F001FE104896
:1020800000F0FEFD40F22321094800F0EFFD0E496B
:1020900040F21A23064A074800F0F2FD084800F013
:1020A000EFFD40F21A21024800F0E0FD5860010007
:1020B000845F0100EC5D010070600100F4600100CC
:1020C000AC600100C860010088600100002070471A
:1020D000014B1B68184700BFA0000020014B18608F
:1020E000704700BFA00000200B46002100B583B060
:1020F00002460091024800F0A5F803B05DF804FB29
:10210000D12000000FB4002100B585B006AB53F814
:10211000042B05480091039300F094F805B05DF896
:1021200004EB04B0704700BFD1200000044608B59E
:10213000084611461A46A0470A4B1B781BB110F0FF
:10214000A3FF01F093FC08494FF43873074A08488D
:1021500000F096FD074800F093FD4FF438710348F6
:1021600000F084FD687601204C61010020610100CF
:10217000EC5D0100606101002DE9F84F9846304F99
:10218000D378924617F803906F2B06460C460A9DAB
:1021900009F003093FD039D903F0F703702B37D08A
:1021A0000A27BB4609E0BE42DBB274F100042B7083
:1021B0001FD345451DD906460C46304621463A46B2
:1021C0000023FEF74BFD5FFA82FC092A05F1FF357B
:1021D0000CF13003E7D9B9F1010F0CBF0CF1370C4A
:1021E0000CF1570CBE425FFA8CF374F100042B70B3
:1021F000DFD29AF800309B0605D5BBF1080F0DD051
:10220000BBF1100F13D02846BDE8F88F582BC7D16B
:102210001027BB46D1E70827BB46CEE79AF8023025
:10222000284643F008038AF80230BDE8F88F9AF890
:102230000230284643F010038AF80230BDE8F88FD8
:10224000EFBD01002DE9F04F0446107895B088B13C
:1022500093460D461F46002625280ED02946A04746
:10226000002807DB01360BF1010B9BF8000000286A
:10227000F2D1304615B0BDE8F08F00219BF8013057
:10228000CDE90E11252BCDE91011CDE9121100F089
:10229000ED808E4688468A4689460BF1010CA3F1F3
:1022A0002002102A0AD8DFE802F0D80909D5090966
:1022B0000909090909DE09DB0909D10029B19DF8DD
:1022C000402042F040028DF84020BEF1000F05D0C2
:1022D0009DF8402042F020028DF84020B8F1000F18
:1022E00005D09DF8402042F010028DF84020BAF150
:1022F000000F05D09DF8402042F008028DF84020E4
:10230000B9F1000F05D09DF8402042F004028DF88D
:1023100040209DF8402002F04401442900F07682DC
:102320009DF840202A2B42F080028DF8402000F0DA
:102330004F82DFF878E219461EF803206046520704
:1023400048BF002216D510F8013F30391EF803802F
:1023500002EB820218F0040F01EB42021946F2D19F
:10236000844507D09DF840101192D20F62F34101CD
:102370008DF840102E2B0CBF012100219DF841202B
:1023800061F341028DF8412028D143782A2B00F0D7
:102390004282DFF818E219461EF80320013012F0DD
:1023A000040208BF11460ED0002210F8013F303958
:1023B0001EF803C002EB82021CF0040F01EB420284
:1023C0001946F2D1D10F12929DF840209446C2F3E3
:1023D0004002114361F3410C8DF840C0A3F14C025F
:1023E00000F101082E2A00F22B82DFE812F0CE0263
:1023F0002902290229022902290229022902290285
:102400002902290229022902290229022902290274
:102410002902290229022902290229022902290264
:10242000290229022902BE022902FD022902ED0227
:102430002902290229022902290229022902EB0282
:1024400029022902290229022902DE0201211CF89F
:10245000013F24E74FF0010EF9E74FF00108F6E7DE
:102460004FF00109F3E74FF0010AF0E78DF8430060
:102470000A460B4608468E468C460BF102089DF92B
:1024800040909DF84010B9F1000FACBF4FF0FF3AFB
:10249000DDF844A0BEF1000F00F0F68057F8049B71
:1024A000B9F1000F039707DA4FF0FF399DF841C0EB
:1024B0006FF3410C8DF841C04FF0000C01F00307A1
:1024C000012B0497CDF844C0CDF848C000F0168128
:1024D000022B00F08881042B00F0A681032B00F072
:1024E0003C8301F00303002B40F026819DF843302C
:1024F000253B532B56D8DFE813F0BA0255005500A0
:102500005500550055005500550055005500550023
:102510005500550055005500550055005500550013
:102520005500550055005500550055005500550003
:1025300055005500550055005500550055005500F3
:1025400055005500550055005500550055005500E3
:1025500055005500550055005500550055005500D3
:102560006D005500550055005500550055005500AB
:10257000550055005500AF025B0055005500550051
:1025800055005B00550055005500550093026D0045
:10259000880255005500790255006D005500550020
:1025A0006D001E60C346039F5FE600BFEFBD0100E4
:1025B0000A074EBF2B23C1F300114B010493DDE941
:1025C0000E23002B06DA524263EB43030F932D23B5
:1025D0000E9204930DF1360BCDF800B008AB10AAA3
:1025E000DDE90E01FFF7C8FDB9F1000F07460ADB70
:1025F0009DF840206FF386128DF84020ABEB070268
:10260000914500F29F81002FCCD0119BD9461846EE
:102610000593049BABEB070203B101329DF8421016
:1026200011F01003069300F09E8002320244480627
:1026300044BF12981218BAF1000F33DD9DF8400024
:10264000AAEB020A4307C0F3800B2BD4400640F1EB
:102650008982049B002B40F062810AF1FF3CBAF1B1
:10266000000FD8BFE2462ADD4FF0300A0796E34656
:10267000664601E08EB1164629465046A04700281E
:1026800006F1FF32F6DAF5E51CF0020F0CBF4FF051
:10269000FF39DDF8489003970EE74FF0FF3A079EA9
:1026A00001365E44049B002B00F08F80294604987D
:1026B000A0470028FFF6DEAD9DF842100136CA069D
:1026C0007AD40B0778D4069B3BB129469DF843008A
:1026D000A0470028FFF6CEAD0136059B002B46DD56
:1026E000DDF814B0B34401E05E4541D02946302006
:1026F000A047002806F10106F6DABBE5C31E039FDA
:10270000042B00F28D82DFE813F0030106000600BF
:10271000E300E300039F073727F007031F46F7E8AE
:102720000223CDE90E230397DBE600230F93049BDE
:102730000392002B00F09081C345BFF433AF4FF0FC
:10274000000929461BF8010BA047002809F10109DF
:10275000FFF690ADC345F4D1B9F1000F4846FFF63E
:1027600089AD4E441EE70B0748BF01325EE7B34612
:10277000002608E0294617F8010BA047002806F1BB
:102780000106FFF677AD4F45F4D3002E3046FFF635
:1027900071ADBAF1000FB34440F327820AEB0B0688
:1027A00002E05E453FF4FEAE29462020A047002807
:1027B0000BF1010BF5DA5DE529463020A047002832
:1027C000FFF658AD01367EE7E2469DF8421076E707
:1027D0009DF841300CF1010043F001038DF84130C8
:1027E0009CF80130C6E5C31E042B00F22C820FF2C8
:1027F000080C5CF823F000BF4D29000015270000ED
:1028000015270000F3280000F32800006FF386125C
:102810008DF8402084E59DF84130023043F00403F8
:102820008DF841300378D9E5039F073727F0070774
:10283000D7E90023CDE90E2307F10803039350E6FF
:1028400080469DF840E0CEF3400E9DF84110782B75
:102850008C468DF8433008F101081BD86D2B00F22F
:102860002581692B16D8572B40F210810120A3F146
:102870005802D2B200FA02F212F4624F40F00C8118
:1028800040F6010912EA090F40F0B18112F4043F49
:1028900040F031819DF8403043F001038DF8403025
:1028A00000239DF84020C1F3C3006EF3410201F004
:1028B000040EC9078DF8402002467FF5E0AD57F8B9
:1028C00004ABBAF1000FC0F20D819DF84010E1E5B4
:1028D00057F804CB012A63464FEAEC7CCDE90E3C65
:1028E00003977FF4FEAD5AB243F3C0130E920F93D9
:1028F000F7E54FF0000C039F57F8043B022ACDE99F
:102900000E3C01BF9BB20E9300230F930397E8E5A3
:1029100057F8043B0E93DB1703970F93E1E5184636
:102920002946A0470028FFF6A5ACBAF1000F06F132
:1029300001060AF1FF3C7FF747AF4FF0300ACDF8B0
:1029400010B093E6A9EB020211925CE69DF84330C9
:10295000039A632B039B02F104021B680E933FF45E
:10296000E4AE002303920F93BBE543789DF840E06B
:10297000682BCEF3400E00F00A8102219DF8412021
:1029800061F3C6028DF841205FE7BDF840204FF0AB
:10299000010E22F4F04222F0020242F4804242F0A0
:1029A00002024378ADF840204FE706229DF84130FF
:1029B0009DF840E062F3C6038DF841304378CEF3D2
:1029C000400E42E70722F1E743789DF840E06C2B88
:1029D000CEF3400E00F0E68003219DF8412061F324
:1029E000C6028DF8412030E70522DFE7B9F1000F7C
:1029F0000E9F80F2C2803846FEF754F907EB0009BB
:102A00000020A9EB0702059008E60E98002840F088
:102A1000CB80DFF854920522A9F105070590FDE56A
:102A20000E9B07283FF6BEAD01A252F820F000BF72
:102A3000A3250000892A0000852A0000A3250000A4
:102A4000512A0000512A0000A3250000A325000000
:102A5000F2171E605A60A5E500200E9B0122CDE909
:102A600004008DF820300DF1210908AFD6E5294684
:102A70002520A0470028FFF6FDABC346039F013683
:102A8000FFF7F3BB1E808DE51E708BE5412B03D055
:102A9000453B022B3FF6FEAE04239DF842204FF04B
:102AA000010E63F302028DF84220FAE66E3BDAB2C1
:102AB0000123934040F2824213423BD113F0240F92
:102AC0002BD1D8077FF5E6AE03239DF8422001F015
:102AD000780063F30202402808BF4EF0010E8DF823
:102AE0004220DEE69DF84010CAF1000A41F00401E0
:102AF0008DF84010CEE49DF8423060F302038DF86B
:102B0000423001F07803402B03467FF4CAAE9DF8B3
:102B1000402002438DF84020C3E603239DF8422065
:102B200011F0780F63F3020218BF4EF0010E8DF81A
:102B30004220B6E602229DF8423062F302038DF88D
:102B4000423001F07803402B05D19DF8403043F02E
:102B500001038DF840300223A3E6039F57F8043B9E
:102B60000E93D3E6BAF1000F0AF1FF3CC8BF4FF055
:102B7000200A3FF77BADE24694E54946384612F01D
:102B80007DF9002F3FF40EAD07EB000938E7012275
:102B90009DF8413000F1020862F3C6038DF8413020
:102BA000837852E60422F3E70DF1360B10AA0021D8
:102BB000CDF800B008ABFFF7DFFABDF84220B9F15D
:102BC000000F02F0EF0242F4F04242F0100207461A
:102BD000ADF84220BFF60CAD00283FF4E3AC1198ED
:102BE000D9460590ABEB070218E55E46DAE4022011
:102BF0009DF8422060F302028DF8422001F0780235
:102C0000402A05D19DF8400040F001008DF84000B9
:102C1000632BA0D1002A18BF4EF0010E022340E61C
:102C200057F804CB012A4FEAEC730F93CDF838C064
:102C3000634613D0022A01BF0FFA8CF30E934CF3B4
:102C4000C0330F9362E6039F012A57F8043B07D174
:102C5000DBB20E93002303970F9342E4039742E6FF
:102C60004FF0000C4AE600BF89610100002383F3A6
:102C70001188BFF36F8F0423184602DF704700BF2F
:102C80000FB400B583B004A951F8040B0191FFF70C
:102C90002BFA03B05DF804EB04B0704708B5EFF30E
:102CA0001183202383F31288BFF36F8F01F0DCFBC5
:102CB0000248FFF727FA01F017F8FCE78C610100E2
:102CC0002DE9F04F1446828B834612F0080C83B036
:102CD00040F04E8102F0070002290746CDF804C0FB
:102CE00080B254D0DBF81860002EC0F2E080411FA3
:102CF000012940F20581042840F08A8122F0070270
:102D0000DBF8005092B2ABF81C20002D00F03881A7
:102D100042F02002ABF81C205FB34FF00008DBF854
:102D200008704546C246002F50D1002D4FD1BAF150
:102D3000000F1ED02F464AE0BAF1000F02D05846CD
:102D4000BF49D047EFF31184202282F31288BFF3EA
:102D50006F8F484610F090FC002800F0178148461D
:102D600010F0B0FCBBF81C2022F0080292B2ABF8C5
:102D70001C20D1064DD5012122F0100292B202F0A2
:102D8000070002290746ABF81C2080B2AAD1002810
:102D90005ED1DBF8001000297AD0002F40F01481BA
:102DA000DBF81010D1F800A0BAF1000F00F0248178
:102DB0003D464FF006083E4622F0070242F006026A
:102DC000ABF81C20DBF80870002FAED0012742F0D2
:102DD00008020BF114094846ABF81C2010F05AFC0D
:102DE000002800F0E18084F31188BFF36F8FBFB932
:102DF000002DA1D02846314650F8047B00F080FA1F
:102E0000044618B32946334642465846A0473D4635
:102E1000EEE793063CD522F02002022192B2AEE703
:102E2000DBF808100029E3D00C68334642465846C8
:102E30004F68B847002CDBD0214624683346424611
:102E400058464F68B847002CF6D1D1E73D46CFE74A
:102E500002281AD001281BD1DBF80010C1B1012FC4
:102E600040F0BE80DBF81010D1F808A0BAF1000FD6
:102E700000F00981002522F0070242F005024FF020
:102E800005082E46ABF81C209CE7BBF81E5015B376
:102E90000BF11405284610F0FDFB002800F0EA8035
:102EA00084F31188BFF36F8F03B0BDE8F08F4FF04C
:102EB0000108019B22F0070242F00102DBF80050FA
:102EC000CBF80430ABF81C20CBF80030474529D0B4
:102ED0004FF0000A76E7022F40F0A680DBF81010D2
:102EE000D1F804A0BAF1000F00F0D98022F0070257
:102EF00042F004024FF004082E46ABF81C2061E7B4
:102F0000019B0628DBF80050CBF80430CBF80030EA
:102F10000FD04FF0000822F0070292B24745ABF8FD
:102F20001C20D5D1002D3FF424AF4FF0000A5746A6
:102F30004DE74DB12846BBF81E10013189B2ABF800
:102F40001E1000680028F8D122F00701BBF81E000F
:102F500041F00202ABF81C2089B210B14FF0020818
:102F6000B4E741F022024FF00208ABF81C20ADE7B5
:102F700001290CBF42F0100242F02002828387E751
:102F8000002F3FF4F6AEA846AA461BE788232D4A39
:102F90002D482E49FFF774FE49462D48FFF770FE75
:102FA00088212848FFF762FE2A494FF49A73254A80
:102FB0002548FFF765FE49462748FFF761FE4FF4B5
:102FC0009A712048FFF752FE24491F484FF4AB7313
:102FD000234AFFF755FE4FF4AB712148FFF746FE39
:102FE000204919484FF4B2731D4AFFF749FE4FF4C8
:102FF000B2711B48FFF73AFE1B4913484FF4AD73FB
:10300000174AFFF73DFE4FF4AD711548FFF72EFE4E
:1030100016490D4840F21B13114AFFF731FE40F2EA
:103020001B110F48FFF722FE1149074840F25D13BC
:103030000B4AFFF725FE40F25D110948FFF716FE27
:10304000CD30000034620100EC5D010094620100AB
:10305000AC620100646201007C620100E061010079
:10306000B86101001C620100EC610100B4AD010017
:103070000462010010494FF49A73104A1048FFF798
:10308000FFFD294698E70F490D484FF4B4730E4AE7
:10309000FFF7F6FD4FF4B4710B48FFF7E7FD094960
:1030A000074840F26113084AFFF7EAFD40F2611158
:1030B0000548FFF7DBFD00BF6462010034620100D8
:1030C000EC5D0100EC610100B8610100F8B5044657
:1030D0000D4600F11406EFF31187202383F31288C5
:1030E000BFF36F8F304610F0C7FA50B1304610F082
:1030F000E9FAA5613A462046BDE8F8400121FFF70C
:10310000DFBD8823064A07480749FFF7B9FD314666
:103110000648FFF7B5FD88210148FFF7A7FD00BF6E
:1031200034620100EC5D010094620100AC620100B8
:1031300088B138B50C4659B10B684BB14B683BB1FF
:1031400005462022002111F07EFE2C61002038BDB2
:103150006FF0150038BD6FF0150070472DE9F84F7E
:10316000002800F081800D4600297DD001F1040A7D
:103170000446504600F0AEF8061E26D1AB68032B7D
:1031800072D804F11409EFF3118B202383F3128812
:10319000BFF36F8F484610F06FFA804600286AD060
:1031A000484610F08FFA4FF6FF72E38BA78B9342DD
:1031B00007F007073FD0022F39D0062F48D8DFE8A5
:1031C00007F00842474708190800DADA3046BDE838
:1031D000F88F00232B60636893B31D606560002F38
:1031E00045D13E4620465A460221FFF769FD30464A
:1031F000BDE8F88F6FF085064FF00008484610F0E4
:1032000049FA002845D08BF31188BFF36F8FB8F1CE
:10321000000FDBD05046002100F072F880460028F5
:10322000D4D03A46294620460023C047CEE7013392
:103230003E46E383E2E76FF00A064FF00008DDE761
:1032400025606560CBE76FF004064FF00008D5E716
:10325000184919484FF4E473184AFFF711FD4FF469
:10326000E4711648FFF702FD6FF01506AEE73E4623
:103270004FF00008C2E78823114A0F481149FFF7B1
:10328000FFFC49461048FFF7FBFC88210C48FFF77C
:10329000EDFC4FF49A730A4A07480C49FFF7F0FC1B
:1032A00049460B48FFF7ECFC4FF49A710448FFF7CE
:1032B000DDFC00BF1C620100EC5D0100B861010093
:1032C0003462010094620100AC620100646201009A
:1032D0007C620100034640B1426802F00302022A08
:1032E00006D0032A04D0012A05D06FF015007047DC
:1032F0001A68002AF9D0002210469A60704700BF71
:1033000008B54268034602F00302022A81600DD02C
:10331000032A16D0012A11D00C490D4845230D4A25
:10332000FFF7AEFC45210B48FFF7A0FC0068002228
:103330005A6008B110F028FF002008BD002242604A
:10334000FAE7006800225A6008BD00BFB4AD010072
:10335000EC5D0100C4620100704700BF0346024AF1
:1033600000201A60704700BFEC620100036A1BB1C5
:103370001B7900200B7070476FF05700704700BF3B
:1033800070B5066A04460D46B6B103233371036A6D
:1033900033B1DB6823B11B6A1B790BB1002070BD10
:1033A00003212046A847002813DB01212046317164
:1033B000A8470023337170BD0321A847002802DA13
:1033C00010F1860FEBD120462B46BDE8704001215D
:1033D000184710F1860FE8D070BD00BF036A1B7953
:1033E00003F0FD03012B14BF6FF00F0000207047A6
:1033F00011F029BD11F01ABD08B50348034A002198
:10340000121AFFF7F5FF08BD700800206C76012046
:10341000074808B5074A0849121AFFF7EBFFBDE84D
:1034200008400648064A0749121AFFF7E3BF00BFE3
:10343000000000206C08002024BF010000000020D4
:103440000000002024BF010038B505460C4699B1A4
:10345000D1E9012312480968FEF754FED4E9042398
:10346000E1681048FEF74EFEE1690F48FEF74AFE9C
:10347000A1690E48FEF746FE012D05D021462846DB
:10348000BDE838400DF094BEEFF3058108481039CF
:10349000FEF738FE21462846BDE838400DF088BECC
:1034A000EC6201001C6301004C6301005C630100DD
:1034B0008C63010001460068FFF7C6BF08B500F045
:1034C00005F8BDE8084000F005B800BF30BFFFF7C1
:1034D000FDBF00BF054B5A699B689A4204D0044A5D
:1034E000536843F0805353600EF0FEBBEC7501202F
:1034F00000ED00E008B52E48FEF704FE2D4B9B6A58
:10350000980120D42B4B1D209B6AD90123D4294B31
:103510009B6ADA0227D4274B9B6A1B032BD4254BCB
:103520009B6A59032FD4234B9B6A9A0333D4214BB4
:103530009B6ADB0337D41F4A936A6FEA03436FEA3F
:103540001343936208BD1C48FEF7DCFD194B1E2097
:103550009B6AD901DBD51948FEF7D4FD154B1F2016
:103560009B6ADA02D7D51648FEF7CCFD114B022034
:103570009B6A1B03D3D51348FEF7C4FD0D4B2120D6
:103580009B6A5903CFD51048FEF7BCFD094B22209A
:103590009B6A9A03CBD50D48FEF7B4FD054B23205B
:1035A0009B6ADB03C7D50A48FEF7ACFD2420C2E7BF
:1035B000A063010000ED00E0BC630100D0630100E6
:1035C000EC630100186401003864010060640100CC
:1035D0007C64010070B5054628480C46FEF792FD54
:1035E000274B9B6AD80439D41623254A926A1105C1
:1035F0002FD4234EB26A920522D4214A926A5005F2
:1036000019D41F4A916AC90510D4926A920408D449
:10361000184600211A4A936A43F47F43936221704B
:1036200070BD1848FEF76EFD1C20F2E71648FEF745
:1036300069FD1B20EDE71548FEF764FD1A23E0E75E
:103640001348FEF75FFDB16BB36A1B040BD419235B
:10365000D3E71048FEF756FD1823CAE70E48FEF7D9
:1036600051FD1723C1E70D48FEF74CFD002DEED0AC
:10367000B36A23F40043B362E9E700BFA864010022
:1036800000ED00E054650100386501001C65010093
:10369000E8640100D4640100C06401000465010015
:1036A00070B5054639480C46FEF72CFD384B9B6A31
:1036B000D9062BD4364B10209B6A1A072ED4344ED1
:1036C000B36A9B0732D4324B9B6ADA0737D4304B4C
:1036D0009B6A9B063BD42E4B9A6AD60602D49B6A01
:1036E0009D0703D52A4B9B6AD9063FD4284B9A6A7B
:1036F000920603D55A6A22F400525A620021244AE3
:10370000936A43F0FF039362217070BD2148FEF776
:10371000F9FC1F4B11209B6A1A07D0D51C4E1E487E
:10372000FEF7F0FCB36A12209B07CCD51B48FEF7CE
:10373000E9FC716BB36A18060ED41320C3E718486E
:10374000FEF7E0FC124B14209B6A9B06C3D515487C
:10375000FEF7D8FC1520BEE71348FEF7D3FC002D7A
:10376000EBD0B36A23F08003B362E6E70F4940F27F
:103770002D130F4A0F48FFF783FA0F48FFF780FA1F
:1037800040F22D110A48FFF771FA00BF846501006D
:1037900000ED00E09C650100D4640100D0650100EB
:1037A0000466010054650100EC65010058660100E3
:1037B00024660100EC5D0100A466010070B57E4B3B
:1037C0008AB05E680023C6F3080C83F31188BFF348
:1037D0006F8F02F07F44B4F17F4F40F0AE8002F073
:1037E0000C04082C00F0A68014074BBF0C460446BE
:1037F0001D460125002C00F0A0800022ACF103033F
:103800008DF80720092B06D8DFE803F02E677B73BD
:10381000050505050577694B16F4F87F6849694881
:1038200018BF1946ACF11002FEF76CFC00262068A8
:103830006168A268E3680DF1080CACE80F0020692C
:103840006169A269E369ACE80F00002D60D0C3F3A1
:10385000080240F2FF110AB90B430993304602A94E
:10386000FFF7F2FD0AB070BD5748FEF74BFC00238E
:10387000514E8DF80730F36A9A0750D4F36A002B43
:103880006ADBF36A5B0078D55048FEF73BFC73694E
:10389000A26943F480737361BFF34F8FBFF36F8FDF
:1038A000736932F8022C23F480737361BFF34F8F76
:1038B000BFF36F8F4DF602739A4251D0B36ADBB2F9
:1038C0008BBBB36A13F47F4F50D1B36AB3F5803F1B
:1038D00062D3FFF70FFE064605E000200DF1070159
:1038E000FFF7DEFE06469DF80730002B9FD00AB09A
:1038F00070BDFFF7FFFD064699E73548FEF702FC6D
:1039000094E700200DF10701FFF764FE0646EAE7A1
:10391000099B23F4FF7323F0010309939EE72D48CD
:10392000FEF7F0FB82E701200DF10701FFF7B8FE7B
:103930000646D8E72848FEF7E5FB284940F214433D
:10394000274A2848FFF79CF92748FFF799F940F2E2
:1039500014412348FFF78AF92448FEF7D3FB65E7B3
:1039600021682348FEF7CEFB2668BCE701200DF155
:103970000701FFF72FFE0646B5E71E494FF43C73DB
:10398000174A1848FFF77CF91B48FFF779F94FF4FD
:103990003C711348FFF76AF9164940F2ED23104ACB
:1039A0001048FFF76DF91548FFF76AF940F2ED216D
:1039B0000B48FFF75BF900BF00ED00E02067010056
:1039C00008670100C4680100BC67010008680100C5
:1039D0009C680100D46701003C6701006867010032
:1039E00024660100EC5D01007C670100F8670100BE
:1039F00028680100B4AD01006C680100486801004E
:103A0000064B5A6942F010025A615A6942F48062C8
:103A10005A615A6922F008025A61704700ED00E0CD
:103A2000EFF30880EFF3098101B57246FFF7C6FE98
:103A300001BD00BF0B4880F308880AF01DFD20205F
:103A400080F3118808484FF40061401880F309881A
:103A5000EFF314800221084380F31488BFF36F8FC3
:103A600000F0D2F8B08F0120707601200A4B9B68DD
:103A7000834201D00FF00EBBEFF30583002BF9D08A
:103A8000064B5A6842F080525A605A6A22F4004249
:103A90005A620FF0FFBA00BFEC75012000ED00E0A4
:103AA00014498A684FF030001044EFF3098C80E825
:103AB000F01F202080F31288BFF36F8F0E4F4FF05E
:103AC00000664A698A603E60D2F8AC000023C2F802
:103AD000AC3080F3118802F1300090E8F01F8CF3D5
:103AE000098802F1000004B500F0CAF8BDE80440FE
:103AF00070470000EC75012004ED00E01EF0040F9B
:103B00000CBFEFF30880EFF30980816911F8021C04
:103B10000229FFD001B57246FFF7CCFC01BD00BF02
:103B200000B2002807DB012300F01F01024A400910
:103B30008B4042F82030704700E100E000B20028DE
:103B40000CDB01220649430900F01F0020338240AC
:103B500041F82320BFF34F8FBFF36F8F704700BF33
:103B600000E100E00123054A410952F8212000F05C
:103B70001F0003FA00F01040704700BF00E100E0B2
:103B800038B54B1C072B044611D800B25B01002846
:103B9000DBB206DB00F1604000F5614080F80033E5
:103BA00038BD0B4A00F00F000244137638BD0D46B5
:103BB0006B23084A08490948FFF762F82946084874
:103BC00007232246FFF75CF86B210248FFF74EF807
:103BD000FCEC00E0D868010010690100EC5D010018
:103BE0002C69010000210120FFF72EBC044B054A7F
:103BF00023F07F039360BFF34F8FBFF36F8F704746
:103C00000000000000ED00E008B5FFF7EFFF0B4AF1
:103C1000D2F8883023F47003C2F88830EFF31483AD
:103C200023F0040383F31488BFF36F8FFFF7E4FBE3
:103C3000FFF7EEFB00F076F80DF0AEFB00ED00E0D4
:103C400030B44FF08075002442F8203C029B0B49B1
:103C500042F81C3C039B21F0010142F8183C049BF4
:103C600042F8045C42F8143CA2F1200342F8081C1C
:103C7000C0F8AC40036530BC704700BF2D21000088
:103C8000D0F89C3083F30B88704700BF6FF085003D
:103C9000704700BF00B50C4B0E4698601546D0F833
:103CA0009C3083F30B882C4686F309880020044B54
:103CB00098472046002100220023024C20470000A4
:103CC000CD3C00002D210000EC75012061B662B6EC
:103CD00080F31188BFF36F8F704700BF1022014B34
:103CE0001A61704700ED00E072B6002383F311887B
:103CF000BFF36F8FBFF34F8F30BF62B6BFF36F8FCD
:103D0000704700BF72B6002383F31188BFF36F8F33
:103D1000BFF34F8F20BF80F31188BFF36F8F62B660
:103D2000704700BF00234FF0200C40F20F100449F1
:103D3000CA180133834282F800C3F9D1704700BF2B
:103D400000E100E008B5EFF30583064A103B02EB03
:103D5000C30152F8330049688847BDE80840FFF7BF
:103D6000B9BB00BFE053010040E800F313F4803F0B
:103D7000D8B208BF6FF01500704700BF10B50A4CED
:103D800084B0234601210948094A00F0EFF80022D7
:103D9000084B0121E41A01A8CDE90134039200F097
:103DA00009F904B010BD00BF00F002206C690100E9
:103DB000000000207008002010B5134C0B89D1F8CA
:103DC00000C0D4F890202CF01F0EC2F3072203F09D
:103DD0001F0C4B68013A013B90424989734410D84B
:103DE00001F0070123F01F0343EA41034CEA0E02EE
:103DF00043F00103C4F89800C4F89C20C4F8A03034
:103E000010BD6FF0150010BD00ED00E02DE9F84F7A
:103E1000154671B1804607464FF0000901EB410499
:103E20007E68002E76D01F2E01D9F30604D06FF0E5
:103E300015052846BDE8F88F58F829A01AF01F0F7D
:103E4000F5D15046FFF790FF03460AF1FF303044AA
:103E50001E46FFF789FF8642E9D116F1160FE6D01C
:103E6000B542E4DD404BC3F89860D3F89C00C3F83A
:103E7000986058F829107A68D3F8A0A020F01F00A5
:103E80000A4488424AF01F0A02F1FF3B52D0C3F8AD
:103E90009860D3F8A020013921F01F0102F01F0221
:103EA0000A43DA453946E8B2C3F8A0203AD0FFF712
:103EB00083FF10F1160FBAD02B49451CC1F898604A
:103EC0007A6858F82930D1F89C60134423F01F0019
:103ED000D1F8A030D1F890C00AF1FF3ACCF3072C0A
:103EE000EDB20AEB00020CF1FF3CA2EB0B026545C0
:103EF00022F01F029BD803F00E03134306F01F02AB
:103F0000024343F00103C1F89850C1F89C200135E9
:103F1000C1F8A03009F10309A14507F10C077FF4AE
:103F20007FAF86E7FFF748FF10F1160F3FF47FAF32
:103F3000451CEFE7DA4512D0C3F89860D3F89C101F
:103F400022F01F0201F01F010A43E8B23946C3F80C
:103F50009C20FFF731FF10F1160FE9D167E73946D2
:103F6000F0B2FFF729FFD5E700ED00E038B50C4DC2
:103F70000C462A78FFF74AFF2870163000D038BD6B
:103F800040F28313074A08480849FEF779FE2146A4
:103F90000748FEF775FE40F283110248FEF766FE01
:103FA0006076012078690100EC5D0100B4AD01008C
:103FB000A869010000295ED02DE9F84F8846064621
:103FC0004FF0000A2C4CDFF8B4B02BE015F1160FBF
:103FD00044F8045C3DD02A4B1B78AB4239DDCBF86A
:103FE0009850CBF89850DBF89C20237A62F30403B6
:103FF0002372DBF8A030227A5B0863F34712227247
:10400000DBF89C3023F01F032360DBF8A03023F0A3
:104010001F03E3600AF1010AC24506F10C0604F130
:10402000140426DA7768002FF4D0D6F800904846BA
:10403000FFF79AFE054607EB09000138FFF794FEEB
:104040008542C3D06FF015020E4B0AEB8A0A43F883
:104050002A2040F293130C4A0C480D49FEF710FE3B
:1040600041460C48FEF70CFE40F293110648FEF75D
:10407000FDFDBDE8F88F7047905A012000ED00E08B
:10408000607601208C5A012078690100EC5D010006
:10409000B4AD0100D46901002DE9F04F874C884A86
:1040A000D4F890301568C3F307239D4283B000F223
:1040B000F080BFF35F8F0026824BC4F89460C4F891
:1040C000C030DDB15168087ACB680A68470923F02F
:1040D0001F03C4F8986022F01F0200F01F0043EA9B
:1040E00047030136024343F00103AE42C4F89C206B
:1040F00001F11001C4F8A030E5D1F5B2724E01A86B
:104100003570FFF72BF9002800F0B0804FF0000E5B
:1041100096F80080F4464246019C6C4F674D32E0B1
:10412000B3F5001F29D16168A36821F01F01013B8D
:104130000B4419F0010F23F01F0340F099804FF05A
:10414000020A4FF0010BD5F89090C9F3072909F145
:10415000FF394A4535D84FF0010E43EA4A0341EA98
:104160000B0143EA0E0302EB0E09C5F89820C5F8CF
:104170009C105FFA89F2C5F8A0300CF1010C604583
:1041800004F110044DD0D4F80C9009EA0703B3F5FC
:10419000800F39D028D8B3F5801FC1D1D4E90113DD
:1041A0004FF0010AD5F8909021F01F01C9F30729BB
:1041B000013B09F1FF390B444A45D34623F01F0365
:1041C000C9D9BEF1000F00D03270414940F2262318
:1041D000404A4148FEF754FD4048FEF751FD40F289
:1041E00026213C48FEF742FDB3F1006FC5D1D4E96A
:1041F000011321F01F01013B0B444FF0030A4FF064
:10420000010B23F01F039EE7D4E9011321F01F01E6
:10421000013B0B444FF0000A4FF0020B23F01F0349
:1042200091E7BEF1000F1FD032702449D1F89030D1
:10423000C3F307239A420BDA0020C1F89820C1F893
:10424000A000D1F890300132C3F307239342F4DC8D
:1042500005221A4BC3F89420BFF34F8FBFF36F8F23
:10426000002003B0BDE8F08F4246DEE73278DCE79D
:10427000BEF1000F00D0327019498323154A164849
:10428000FEF7FEFC1748FEF7FBFC83211148FEF702
:10429000EDFC4FF4FE730F4A0D490F48FEF7F0FC9A
:1042A000D4F8902029461048C2F30722FEF7E8FC14
:1042B0004FF4FE710748FEF7D9FC00BF00ED00E0A7
:1042C000BC6A0100AAFF4400607601200000F0FFF4
:1042D000B4AD010078690100EC5D0100906A010055
:1042E000386A0100606A0100046A010008B50B4BDE
:1042F000C3F1005303F53C33B3F5006F01D3002045
:1043000008BD07499223074A0748FEF7B9FC07484A
:10431000FEF7B6FC92210348FEF7A8FCA4E00120BA
:10432000246B0100F46A0100EC5D01006C6B01007C
:104330004FF0FF30704700BF014B1860704700BF5F
:10434000A400002030B4084C084D2368C5F100518A
:10435000C21801F53C318A423ABF226058194FF029
:10436000FF3030BC704700BFA05A0120A4E00120FC
:1043700028B14FF0FF324FF0FF330DF0E3B806499C
:10438000064840F2C71310B5054AFEF779FC40F223
:10439000C7110348FEF76AFCF46B0100EC5D0100F5
:1043A000F46A010008B10DF0ABB908B5054906483B
:1043B00040F2E313054AFEF763FC40F2E3110348C1
:1043C000FEF754FCF46B0100EC5D0100F46A01009F
:1043D000154B164A10B51A6000F0B2F84FF47A6C1B
:1043E000134B144CD3F824264FF4FA20C2F309439C
:1043F0000CFB03F3C2F3080282F48072883204FBE0
:1044000002330D495B00A1FB03120121D20B00FB1B
:104410001233B3F57A3F094B28BF0132C3F80429A0
:10442000C3F80016002010BD840600200020A1075C
:1044300000C0FF0010270080D34D62100000125012
:1044400058B1064B06491B68064AA1FB03139B0C97
:1044500003FB00F042F00102104770478406002081
:1044600083DE1B43605D0100BFF34F8F0549064BA0
:10447000CA6802F4E0621343CB60BFF34F8F00BF02
:10448000FDE700BF00ED00E00400FA05F0B50646C8
:1044900083B00D461746204C20460CF071FE00B349
:1044A000AAB2A3681B6853B3204631469847002838
:1044B00002DB002003B0F0BD002FFBD1002DF8D0AF
:1044C0003C462F1B042F28BF042702F06DFC3A4600
:1044D000019001A930193C4410F0A8FCA542F0D885
:1044E000E7E714230D4A0E490E48FEF7C9FB216881
:1044F0000D48FEF7C5FB14210848FEF7B7FB0B4932
:104500005D230B4A0748FEF7BBFB0A48FEF7B8FBE2
:104510005D210748FEF7AAFB78520100486C0100B4
:10452000846C0100EC5D0100A46C0100F86C0100DA
:10453000C46C0100186D01000022FFF7A7BF00BF87
:104540000122024BC3F80424704700BF002008E09A
:104550000B460069DBB2002100EB4310104700BF9F
:1045600000200AF097B900BF10B5EFF311842023A3
:1045700083F31288BFF36F8F094A136823F0020197
:10458000DB07116004D584F31188BFF36F8F10BD72
:1045900001200AF00FFA84F31188BFF36F8F10BD6A
:1045A000105B012000200AF005BA00BF10460DF094
:1045B000A1B900BF00B587B004AB0022CDE9043338
:1045C0000123CDF800D0CDE90223CDF804D0036952
:1045D000C9B2EFF3118C202282F31288BFF36F8FE0
:1045E00001EB410203EB82039A6C02F0070EBEF16D
:1045F000010F0ED002F0C002802A8CF31188BFF3A5
:104600006F8F0CBF6FF077004FF0FF3007B05DF891
:1046100004FB80229A648CF31188BFF36F8F084AE1
:10462000C3F844D01A64436853F83130984743F6CE
:104630000952002368460DF003FA07B05DF804FB49
:10464000AD450000C9B2012908B508D8036901EBDE
:10465000410103EB8103986C00F0070008BD054998
:1046600005487F23054AFEF70BFB7F210348FEF731
:10467000FDFA00BF806D0100EC5D0100406D01009E
:10468000064C08B50649074840F2D1132246FEF70A
:10469000F7FA40F2D1112046FEF7E8FA406D01002A
:1046A000806D0100EC5D0100194A70B5831AC3F3F7
:1046B0004713012B2AD805460E46EFF3118120201F
:1046C00080F31288BFF36F8F03EB430002EB800C83
:1046D000DCF8482012F0800411D10122CCF84820E7
:1046E00081F31188BFF36F8F0A4A02EBC3035B6843
:1046F0009847214628463346BDE87040184781F365
:104700001188BFF36F8F4FF0FF31F3E7FFF7B8FF6A
:10471000B85A0120CC6D010070B500220121044679
:1047200040F20510FFF72CFA0F480AF071F80F4B12
:10473000984215D10AF07EF825690D492846FEF702
:10474000F7FC00280BDB0126AE642469084904F15C
:104750002000FEF7EDFC002801DB0020666570BD3F
:104760006FF0040070BD00BFC54700000000AD0B36
:10477000B06D010030B40024104B00EB400203EB9D
:104780008203D3E9105201461C64EFF31180202408
:1047900084F31288BFF36F8F9C6C04F0C00444F064
:1047A00002049C6480F31188BFF36F8F1DB12B4608
:1047B00030BC0348184730BC704700BFB85A0120CE
:1047C000E851010008B506281CD8DFE800F0090907
:1047D0000A0F04090900114B986C10F0070001D072
:1047E00008BD0120BDE80840FFF7C4BF0C490D48D3
:1047F00040F2FB230C4AFEF743FA40F2FB210A4841
:10480000FEF734FA0649074840F20533064AFEF738
:1048100037FA40F205310448FEF728FAB85A012069
:10482000B4AD0100EC5D0100406D010010B4EFF388
:104830001180202181F31288BFF36F8F164A13680D
:1048400043F002041460DA0707D480F31188BFF341
:104850006F8F012010BC0AF01DB8104BD3F80C3438
:10486000DB03F2D5EFF3118481F31288BFF36F8F6E
:104870000B4A936C03F0C00343F00203936484F388
:104880001188BFF36F8F80F31188BFF36F8F002003
:1048900010BCFFF76FBF00BF105B012000E010509D
:1048A000B85A012010B5C9B20129026922D8EFF324
:1048B000118C202383F31288BFF36F8F01EB410328
:1048C00002EB8302936C13F0400406D08CF3118842
:1048D000BFF36F8F4FF0FF3010BD012393648CF353
:1048E0001188BFF36F8F436803EBC1035B68984780
:1048F000204610BDFFF7C4FE38B5C9B20469EFF316
:10490000118E202585F31288BFF36F8F01EB4105CF
:1049100004EB850CDCF8484004F00705012D0CD0B1
:1049200004F0C004802C8EF31188BFF36F8F0CBF8E
:104930006FF077004FF0FF3038BD8024CCF848404E
:104940008EF31188BFF36F8FCCE91023436853F8BF
:1049500031309847002038BD1A4B10B5C21A0C46AA
:10496000C2F34712EFF3118C202181F31288BFF3B9
:104970006F8F02EB420103EB8103996C01F0070E8C
:10498000BEF1010F0FD001F0C00140298CF3118856
:10499000BFF36F8F2346BDE810400CBF6FF0770167
:1049A0004FF0FF311847402199648CF31188BFF311
:1049B0006F8F0548054918645C6451F83220BDE8E2
:1049C00010401047B85A012051450000CC6D01003D
:1049D0002DE9F04101240646444BD3E8EF2FC3E80C
:1049E000E14F0029F9D1002A4DD0002E49D0731E85
:1049F000012B6ED8012E06D13D4BD3F8503403F075
:104A00000303012B3DD00DF057F9054618B9394B7A
:104A10001B78002B4CD1EFF31187202383F31288EE
:104A2000BFF36F8F0125324CDFF8CC80D4F84C24D3
:104A3000D4F84C34D20305D503F00303012B1BD06B
:104A4000012E19D0002D39D03846FFF75BF9D4F884
:104A5000403413F0FF03E9D1D4F80821002AE5D04F
:104A600001222021C4F80831D4F80831C4F84024C8
:104A7000C8F8A0112261D9E72DB387F31188BFF3DD
:104A80006F8FBDE8F0811D491D484A60CA608C6087
:104A9000FEF764FB0028A8DA1A491B484FF4297373
:104AA0001A4AFEF7EDF84FF429711848FEF7DEF8C0
:104AB00004220F4B0746C3F80823B4E70021202047
:104AC0000EF04AFAC3E70422094BC3F80423BDE8F9
:104AD000F0810F490C4840F2B6230C4AFEF7D0F89B
:104AE00040F2B6210948FEF7C1F800BFB45A0120D0
:104AF00000E010506876012000E100E0A45A012097
:104B0000D85A0120A46D0100EC5D0100406D010048
:104B1000B4AD01000A2838B5044607D0074DAB688C
:104B200006485B68E1B29847204638BD034D0D2129
:104B3000AB6828465B689847F1E700BFC0520100A8
:104B400008B507480CF01CFB38B10648FFF7F4FB2A
:104B50000448FDF7C3FA002008BD6FF0120008BD3D
:104B6000C0520100154B000038B508461446EFF35B
:104B70001185202383F31288BFF36F8F11460AF04B
:104B8000DDF885F31188BFF36F8F064B984201D192
:104B9000204638BD044B984214BF6FF00A006FF0F6
:104BA000150038BD0000AD0B0400AD0B08B50AF0D0
:104BB000A5F8034B984214BF6FF00400002008BD15
:104BC0000000AD0B084610B51146EFF31184202309
:104BD00083F31288BFF36F8F0AF0B0F884F3118863
:104BE000BFF36F8F064B984208BF002000D110BD65
:104BF000043398420CBF6FF015006FF00A0010BD2F
:104C00000000AD0B0023024A0020C1E900237047D9
:104C10000050160000487047E06D01000123024873
:104C200008601360704700BFE86D010010B5094CC3
:104C3000A1420BD8C1F5B21C0CF5805C634510464F
:104C40001A4603D810F0F2F8002010BD6FF01500DE
:104C500010BD00BFFF4F160008B5012204481146E1
:104C60000CF034FE034B044A0020C3F80C2508BDA9
:104C7000145B012000B0045080000080214B98425A
:104C80000BD8C0F5B21303F580539A4270B50646AF
:104C900014462ED822B9002070BD6FF01500704761
:104CA0000D464FF0FF324FF0FF3317480CF0C8FEAF
:104CB00040F20112154BC3F800252246E5B1294602
:104CC000304610F0B3F8BFF35F8F104BD3F81824C1
:104CD000D10705D4220703D001229A60BFF35F8F6A
:104CE0004FF48072094BC3F8002507480CF002FE10
:104CF000D1E76FF0150070BDFF21304610F0A3F82A
:104D0000E1E700BFFF4F1600145B012000B0045024
:104D100008460021FFF7B2BF084611461A4609B1FE
:104D2000FFF7ACBF6FF01500704700BF03465B682C
:104D300000205B68DB680B60704700BF034610B45F
:104D40005B6802EA01045B6821EA02015C60996029
:104D5000002010BC704700BF03465B6800205B6802
:104D60005960704703465B6800205B689960704734
:104D7000034610B45B6800205A68136821EA0304F4
:104D80000B405460936010BC704700BF0020704718
:104D900038B5046900293AD04B685BB365684DB1FA
:104DA0008D421DD02B4601E099420CD018461B685D
:104DB000002BF9D1DAB10D60A36861600BB100205E
:104DC00038BDA160FBE70B680360A368994205D07A
:104DD00000230B60002AF2D06568ECE7A060F7E7DB
:104DE000A0680B6881426360F2D1A360F0E76FF0C6
:104DF000150038BD0C4950230C4A0D48FDF740FF03
:104E00000C48FDF73DFF50210848FDF72FFF0A49E8
:104E10004F23064A0648FDF733FF0848FDF730FFE9
:104E20004F210248FDF722FF646E01000C6E010065
:104E3000EC5D0100786E0100486E0100546E0100C7
:104E400070B5456804462B692BB1103528460AF029
:104E500065FE064628B12046BDE870401149FEF7C0
:104E60008FBA014628460AF00DFE0F4B984215D125
:104E7000284632460D490AF0BFFD32460121DB20AB
:104E8000FEF77EFE3246012140F20D10FEF778FE5D
:104E90002046BDE870400349FEF772BA6FF0040087
:104EA00070BD00BF8D4D00000000AD0BB150000083
:104EB0002DE9F043476801F01F063B7B154646EAA3
:104EC000431640F20633D00648BF032205EA030426
:104ED00058BFC2F3401287B0B4F5837F8C468DF87B
:104EE000032000F0C18028D8062C00F0A88067D9E4
:104EF000B4F5807F68D101240123290303FA0CF360
:104F00002ED4680344BF79688B603B696BB310375C
:104F1000314638460DF102020AF080FD15F4403F9B
:104F2000804654D1314638460AF006FE564B984525
:104F300072D0002007B0BDE8F08340F202218C421D
:104F40007BD0B4F5407F08BF0524D5D0B4F5007FF1
:104F50003AD1012329034FF0040403FA0CF3D0D50E
:104F600079684B603B69002BD1D15F2E4FEA561315
:104F70007CD8464906F01F0651F82310F140C907B6
:104F800074D5012B7ED042494248022B18BF0146FE
:104F900001EB860185F48036D1F88000C6F3004627
:104FA000C5F3404343EA460320F4706043EA8203BA
:104FB00020F00F0043EA04230343C1F88030B8E730
:104FC000002C99D0022C97D06FF01500B2E74FF06B
:104FD000000901AB3146384603AA0493CDE9019993
:104FE000CDF80C90CDF814900AF0FAFA264B9842BE
:104FF000EAD115F4003324D1CDE9043331460DF163
:105000000303384603AA03930AF0EAFA1E4B9842B8
:10501000DAD11D4B98458CD138469DF802100AF024
:105020008DFD404585D01C491C48EE231C4AFDF7E8
:1050300027FEEE211A48FDF719FE06245CE7082436
:105040005AE79DF8030085F48035C5F300458DF8D7
:105050000E004B463146384603AA8DF80C408DF8B9
:105060000D500AF0F9FBD1E7092445E70D490B483B
:1050700040F2C7330C4AFDF703FE40F2C7310A483D
:10508000FDF7F4FD094983E70000AD0B346F010023
:105090000004055000A01050146F0100EC5D0100E9
:1050A000E86E0100C46E0100906E010000820D5098
:1050B0004309022B70B51CD0012B14D0C3B9154B7A
:1050C000154E5968A1B1012500F01F000C688540FC
:1050D0008A682A4003D04B6873B1304698473CB188
:1050E00021462468F4E70D4B0D4E59680029EAD19A
:1050F00070BD0C4B0C4EE4E70C4974230C4A0D4870
:10510000FDF7BEFD0C48FDF7BBFD74210848FDF717
:10511000ADFD00BF2C5B01200C520100385B01206B
:1051200030520100445B012054520100286F0100FD
:105130000C6E0100EC5D0100786E0100F0B5406876
:1051400001F01F05067B046987B045EA4615002C6F
:1051500000F09B80B2F5001F00F081800024B2F5C2
:10516000800FCDE9014458D0B3F1C06F75D0B3F1D1
:10517000007F14BF012302238DF8043001AB049398
:10518000002303930593836803AFCB40DC0702D46D
:10519000B2F1A07F1BD000F11004294620460DF18A
:1051A00003020AF03BFC3F4B0646984242D03A4687
:1051B000294620460AF014FA3A4B984262D101225D
:1051C000294620460AF0D2FC002007B0F0BD5F2D32
:1051D0004FEA551348D8344905F01F0251F82310FF
:1051E000D140C90740D5012B4AD03049304C022B61
:1051F00018BF2146203251F82230DB07CBD400F112
:1052000010040DF103063246294620460AF006FC3A
:10521000284B98423CD00296C9E7B3F1007F0CBFFF
:105220000423052301AACDE90424039403AF8DF8D8
:105230000430B0E720469DF803100AF07FFCB0422E
:10524000B5D01D491D4840F2DF131D4AFDF718FD7A
:1052500040F2DF111A48FDF709FD03238CE72946C8
:1052600010300AF059FDAFE71649144840F2C73331
:10527000154AFDF705FD40F2C7311348FDF7F6FC6E
:105280001249B7E76FF015009FE76FF085009CE7C4
:10529000314620460AF05EFC024B9842BBD06FF0CC
:1052A0000B0092E70000AD0B346F010000040550C5
:1052B00000A010500400AD0B146F0100EC5D010064
:1052C000E86E0100C46E0100906E010000820D5076
:1052D00010B582B0154C20460BF052FFA0B1D4E9B6
:1052E00001321B6821699B07019210D50B680022CF
:1052F00023F002030B60019B012120461B689847A5
:1053000000EAE07002B010BD6FF01200FAE7084941
:1053100040F21143074A0848FDF7B2FC0748FDF781
:10532000AFFC40F211410348FDF7A0FC0C52010014
:10533000FC5E01007C5D0100EC5D01003C5F010052
:105340004368136090F808C003EBCC0C63451DD292
:1053500093F805C008338C4516D000B504E093F8E7
:1053600005C008338C450CD0136090F808C0D0F805
:1053700004E00EEBCC0C6345F1D36FF001005DF857
:1053800004FB00205DF804FB002070476FF0010073
:10539000704700BF002900F01B822DE9F04740F262
:1053A000FF1EBA4D00EB810150F8043BC3F3C32C40
:1053B000BCF1080FC3F3080400F2E281744515F84C
:1053C0000C604FEA136C57D0BCF14E0F50D8DFE899
:1053D0001CF0D101C1010E01F700BD01C401F700AD
:1053E0004F004F004F004F004F004F004F004F0045
:1053F0004F004F004F004F004F006D0196014F00CE
:105400004F004F004F004F004F004F004F004F0024
:105410004F004F004F004F004F004F004F004F0014
:105420004F004F004F004F004F004F004F004F0004
:105430004F004F004F004F004F004F004F004F00F4
:105440004F0099014F004F004F004F004F004F0099
:105450004F004F004F004F004F004F004F004F00D4
:105460004F004F004F004F004F004F004F000E0104
:105470006FF08500BDE8F087BCF14E0FF8D801A3AE
:1054800053F82CF061570000B35700006B57000031
:1054900087570000955700006157000087570000AC
:1054A00071540000715400007154000071540000E8
:1054B00071540000715400007154000071540000D8
:1054C00071540000715400007154000071540000C8
:1054D00071540000A95700009F570000715400004C
:1054E00071540000715400007154000071540000A8
:1054F0007154000071540000715400007154000098
:105500007154000071540000715400007154000087
:105510007154000071540000715400007154000077
:105520007154000071540000715400007154000067
:105530007154000071540000715400007154000057
:105540007154000071540000715400007154000047
:105550007154000071540000715400007154000037
:1055600071540000D75500007154000071540000C0
:105570007154000071540000715400007154000017
:105580007154000071540000715400007154000007
:1055900071540000715400007154000071540000F7
:1055A00071540000715400007154000071540000E7
:1055B0007154000071540000715400006B570000DA
:1055C000C2F8084650F8049C5F2C4FEA541CC9F3FB
:1055D000C03740F2F3802E492E4840F2C7332E4A9E
:1055E000FDF74EFB40F2C7312B48FDF73FFBC2F8F9
:1055F00010465F2C4FEA541CEDD8DFF8A08003F072
:105600001F0358F82C40DC40E407E4D5BCF1010F3F
:1056100000F0DC80224C234FBCF1020F18BF3C4647
:10562000012707FA03F9C4F8049050F8049C19F410
:10563000004F60D001270024C9F3412958F82C807D
:1056400028FA03F818F0010FC5D0BCF1010F00F0E3
:105650009480DFF84C80DFF84CA0BCF1020F18BF3B
:10566000D04608EB830C44EA0623DCF880600E4C3D
:1056700043EA470343EA890334402343CCF88030AC
:1056800088427FF491AE0020F4E600BFB86F0100BD
:10569000C46E0100EC5D0100906E0100AC6F010072
:1056A0000004055000A01050F0F0FCFFC2F8404587
:1056B00001275F2C4FEA541C8DD8DFF8188103F0C6
:1056C0001F0358F82C40DC40E40784D5BCF1010FDF
:1056D0007AD0414CDFF80491BCF1020F18BF4C4660
:1056E0004FF0010909FA03F9C4F8089050F8049C36
:1056F00019F4004F9ED10124C9F341299EE7C2F855
:1057000044455FE75F2C4FEA541C3FF664AFDFF877
:10571000C48003F01F0358F82C40DC40E7077FF5F6
:105720005AAFBCF1010F33D02B4C2C4FBCF1020F00
:1057300018BF3C4604EB8304D4F8807027F0E047A0
:1057400047F08047C4F8807001276EE70027C2F851
:105750000046AEE7C2F80C4634E7C2F80446A7E7B5
:105760004FF0FF33C2F804368AE74FF0FF33C2F838
:10577000103685E7C2F804463BE7DFF8648070E73F
:105780006FF0150076E64FF0FF33C2F8083677E782
:10579000134CCFE74FF0FF33C2F8003670E74FF0FD
:1057A000FF33C2F844356BE74FF0FF33C2F84035A2
:1057B00066E74FF0FF33C2F80C3661E70024DFF8EC
:1057C000148003F01F0397E7054C89E7044C27E793
:1057D00000207047AC6F01000004055000A010507D
:1057E00000820D5010B5046920460BF0A3FE002383
:1057F000636110BD70B585680446686820B1636850
:1058000093F82630DB0702D50024204670BD2669B8
:105810004FF0FF334FF0FF3230460BF093FE7369C9
:10582000002B02DD013B73612BB1002430460BF0ED
:1058300067FF204670BD20466B689847041EF5DA66
:10584000736901337361F1E710B5D0E90132946AED
:10585000B4B193F8242062B11B6A8C468646D118F5
:1058600001E08B4209D013F8012B6245F9D1614662
:1058700070462346BDE8104018476FF0850010BD04
:105880006FF0570010BD00BF2DE9F0430D46D0E981
:10589000018798F825100446FF29066983B07FD157
:1058A00098F82610C1F3810102290BD0A3680039B2
:1058B0001B6B18BF0121002B00F0BC8020469847CD
:1058C00000283BDBD8F80820B2F1004F39D1D8F8D6
:1058D0001420B2F1004F4BD1D8F80030B3F1004F93
:1058E00066D0A3685B69002B00F0A480204601A964
:1058F0009847002822DBD8F80020019B9A4273DCED
:10590000D8F8042093425CDC85B998F826309B07D0
:1059100013D020463B68984700280FDBD8F8183092
:10592000002B76D173690133736106E0736901332B
:10593000736198F82630DA0675D4002003B0BDE80C
:10594000F083A368D3F810906368B9F1000F71D0A9
:1059500059688A426BDC1B689A4268DB1146204614
:10596000C8470028EADBD8F81420B2F1004FB3D0C2
:10597000A368D3F820906368B9F1000F5AD0196971
:105980008A4254DCDB689A4251DB11462046C84704
:105990000028D3DBD8F80030B3F1004FA1D107E0E5
:1059A000FFF752FF0028BFF67BAF03B0BDE8F083DE
:1059B0006FF00043D8F804209A4292D1002DB5D15F
:1059C000A3E7A36861681B69002B33D04868824253
:1059D0002DDC09688A422ADB1146204698470028B8
:1059E000ACDB002DA2D190E7A368D3F810906368D8
:1059F000B9F1000F1ED059688A4218DC1B689A4220
:105A000015DB11462046C847002897DB002D8DD1B5
:105A10007BE71F3345F10005580940EAC560690975
:105A20000DF09AFA7EE72046FFF7E4FE86E76FF076
:105A3000150083E76FF0570080E700BF43681868E0
:105A4000B0F1004018BF0120704700BF39B943686A
:105A50001B68B3F1004F02D00846136070476FF027
:105A60001500704708B54368986A98B101214268EB
:105A700093F82CC0126801FA0CF1114203690CD0A2
:105A80001B68194283680CBFDB681B69984700EAF2
:105A9000E07008BD6FF0850008BD074940F2A263C1
:105AA000064A0748FDF7ECF80648FDF7E9F840F22A
:105AB000A2610248FDF7DAF8FC5E01007C5D01009E
:105AC000EC5D01003C5F01002DE9F041456882B0CA
:105AD0000646FFF787FEA86A002850D00BF050FB5F
:105AE0000446002853D0EB8DA86A95F82C1043F497
:105AF000003203F03007302FD0F81080D0E901CE0B
:105B000054D003F00607042F44D0DCF800704FF0A7
:105B1000010C0CFA01FC1CEA070F56D0D8F80070F3
:105B2000DB074CBF4CEA070727EA0C07C8F80070F0
:105B3000DEF80030984700281EDBA86A95F82C2074
:105B40000125436895401B681D424DD00769836855
:105B500001A95B68984700280DD1019B3A6830463F
:105B600053402B4214BF01240024214602B0BDE85B
:105B7000F041FFF789BE03DA02B0BDE8F0810446C8
:105B80002146304602B0BDE8F041FFF77DBE6FF020
:105B90001200F1E71C491D4840F2FE331C4AFDF794
:105BA0006FF840F2FE311A48FDF760F8194940F2EB
:105BB000F733174A1548FDF763F81748FDF760F803
:105BC00040F2F7311248FDF751F8144940F2114301
:105BD0000F4A0E48FDF754F81148FDF751F840F20E
:105BE00011410B48FDF742F80C4940F24963084A5D
:105BF0000648FDF745F80A48FDF742F840F24961CA
:105C00000348FDF733F800BF4C5E0100EC5D010076
:105C10007C5D0100B05D01000C5E0100FC5E0100D6
:105C20003C5F01004368986A90B10121426893F893
:105C30002CC0126801FA0CF1114203690BD01B68E9
:105C4000194202D08368DB68184783681B691847CC
:105C50006FF085007047084940F2A26310B5074A0B
:105C60000748FDF70DF80748FDF70AF840F2A26172
:105C70000248FCF7FBFF00BFFC5E01007C5D0100F9
:105C8000EC5D01003C5F010010B4016942680B68E3
:105C90001268D2F83041E3B15CB100245C610B685A
:105CA000DC7B24B94FF48053C2F808330B689C7B2B
:105CB0006CB9D2F814412CB10023C2F81431D2F8D7
:105CC00014310B681A6822B1596810BC10470022C1
:105CD0009A7310BC704700BF43681B68D3F88004F8
:105CE000C3F88004704700BF42681368D3F84C01C2
:105CF00060B1002010B40124926A12780A70C3F8CF
:105D00004C01D3F84C219C6210BC70474FF0FF301F
:105D1000704700BF002A13DD42681368D3F84C01B6
:105D200068B1002010B40124C3F84C01926AD3F882
:105D30004C01127820460A709C6210BC7047704774
:105D40000020704700B5426803691168EFF31182C3
:105D5000202080F31288BFF36F8F4FF0000E186879
:105D60004FF0010C80F80EE04FF480501B6883F870
:105D70000FC0C1F8040382F31188BFF36F8F5DF881
:105D800004FB00BF4FF0010C00220369196881F881
:105D90000EC01B68DA73704702691168CB7B4BB188
:105DA00043681B68D3F8300128B100234B611368A6
:105DB000988970471846704743681B68D3F84C01B0
:105DC000003818BF012070474FF4002243681B6859
:105DD000C3F80423704700BF4FF4002243681B68D8
:105DE000C3F80823704700BF202243681B68C3F82C
:105DF00004237047202243681B68C3F808237047B8
:105E0000012070470369186801601B685A60704779
:105E10002DE9F04306694FF00108336805469C8977
:105E200083B09442A8BF14461433D3E8EF2F002A5E
:105E300003D1C3E8E08F0028F7D10CBF434600230D
:105E400031D13368224698680EF0F0FFEFF31189E4
:105E5000202383F31288BFF36F8F6B681F68D7F816
:105E6000303153B91C463268536189F31188BFF34E
:105E70006F8F204603B0BDE8F083336828460DF1EC
:105E800007019D68FDF772FA9DF80730002BECD1F1
:105E9000C7F83C57C7F84047C7F83031D7F830311A
:105EA000C7F85080E1E71C46E3E700BF0149FDF772
:105EB00095BA00BFB56000002DE9F04182B00446FC
:105EC0000D4647680BF0F8FE58BB2E4B1B7843B3CA
:105ED0004FF02008642663681B68D3F83031D3B1D3
